{
	"LogManager.sol": {
		"LogProvider": {
			"abi": [
				{
					"anonymous": false,
					"inputs": [
						{
							"indexed": true,
							"internalType": "string",
							"name": "deviceId",
							"type": "string"
						},
						{
							"indexed": false,
							"internalType": "string",
							"name": "fileName",
							"type": "string"
						},
						{
							"indexed": false,
							"internalType": "string",
							"name": "ipfsHash",
							"type": "string"
						},
						{
							"indexed": false,
							"internalType": "uint256",
							"name": "timestamp",
							"type": "uint256"
						}
					],
					"name": "LogRecorded",
					"type": "event"
				},
				{
					"inputs": [
						{
							"internalType": "string",
							"name": "_deviceId",
							"type": "string"
						}
					],
					"name": "getLogs",
					"outputs": [
						{
							"components": [
								{
									"internalType": "string",
									"name": "ipfsHash",
									"type": "string"
								},
								{
									"internalType": "string",
									"name": "fileName",
									"type": "string"
								},
								{
									"internalType": "uint256",
									"name": "timestamp",
									"type": "uint256"
								},
								{
									"internalType": "address",
									"name": "recorder",
									"type": "address"
								}
							],
							"internalType": "struct LogProvider.LogEntry[]",
							"name": "",
							"type": "tuple[]"
						}
					],
					"stateMutability": "view",
					"type": "function"
				},
				{
					"inputs": [
						{
							"internalType": "string",
							"name": "_deviceId",
							"type": "string"
						},
						{
							"internalType": "string",
							"name": "_fileName",
							"type": "string"
						},
						{
							"internalType": "string",
							"name": "_ipfsHash",
							"type": "string"
						}
					],
					"name": "recordLog",
					"outputs": [],
					"stateMutability": "nonpayable",
					"type": "function"
				}
			],
			"devdoc": {
				"kind": "dev",
				"methods": {
					"getLogs(string)": {
						"details": "Lấy DS các hash của 1 device"
					}
				},
				"version": 1
			},
			"evm": {
				"assembly": "    /* \"LogManager.sol\":60:1650  contract LogProvider{... */\n  mstore(0x40, 0x80)\n  callvalue\n  dup1\n  iszero\n  tag_1\n  jumpi\n  0x00\n  dup1\n  revert\ntag_1:\n  pop\n  dataSize(sub_0)\n  dup1\n  dataOffset(sub_0)\n  0x00\n  codecopy\n  0x00\n  return\nstop\n\nsub_0: assembly {\n        /* \"LogManager.sol\":60:1650  contract LogProvider{... */\n      mstore(0x40, 0x80)\n      callvalue\n      dup1\n      iszero\n      tag_1\n      jumpi\n      0x00\n      dup1\n      revert\n    tag_1:\n      pop\n      jumpi(tag_2, lt(calldatasize, 0x04))\n      shr(0xe0, calldataload(0x00))\n      dup1\n      0x1c0b75e8\n      eq\n      tag_3\n      jumpi\n      dup1\n      0x5178e3dd\n      eq\n      tag_4\n      jumpi\n    tag_2:\n      0x00\n      dup1\n      revert\n        /* \"LogManager.sol\":1457:1643  function getLogs(string memory _deviceId) public view returns (LogEntry[] memory){... */\n    tag_3:\n      tag_5\n      0x04\n      dup1\n      calldatasize\n      sub\n      dup2\n      add\n      swap1\n      tag_6\n      swap2\n      swap1\n      tag_7\n      jump\t// in\n    tag_6:\n      tag_8\n      jump\t// in\n    tag_5:\n      mload(0x40)\n      tag_9\n      swap2\n      swap1\n      tag_10\n      jump\t// in\n    tag_9:\n      mload(0x40)\n      dup1\n      swap2\n      sub\n      swap1\n      return\n        /* \"LogManager.sol\":806:1386  function recordLog(string memory _deviceId, string memory _fileName, string memory _ipfsHash) public{... */\n    tag_4:\n      tag_11\n      0x04\n      dup1\n      calldatasize\n      sub\n      dup2\n      add\n      swap1\n      tag_12\n      swap2\n      swap1\n      tag_13\n      jump\t// in\n    tag_12:\n      tag_14\n      jump\t// in\n    tag_11:\n      stop\n        /* \"LogManager.sol\":1457:1643  function getLogs(string memory _deviceId) public view returns (LogEntry[] memory){... */\n    tag_8:\n        /* \"LogManager.sol\":1520:1537  LogEntry[] memory */\n      0x60\n        /* \"LogManager.sol\":1614:1624  deviceLogs */\n      0x00\n        /* \"LogManager.sol\":1625:1634  _deviceId */\n      dup3\n        /* \"LogManager.sol\":1614:1635  deviceLogs[_deviceId] */\n      mload(0x40)\n      tag_16\n      swap2\n      swap1\n      tag_17\n      jump\t// in\n    tag_16:\n      swap1\n      dup2\n      mstore\n      0x20\n      add\n      mload(0x40)\n      dup1\n      swap2\n      sub\n      swap1\n      keccak256\n        /* \"LogManager.sol\":1607:1635  return deviceLogs[_deviceId] */\n      dup1\n      sload\n      dup1\n      0x20\n      mul\n      0x20\n      add\n      mload(0x40)\n      swap1\n      dup2\n      add\n      0x40\n      mstore\n      dup1\n      swap3\n      swap2\n      swap1\n      dup2\n      dup2\n      mstore\n      0x20\n      add\n      0x00\n      swap1\n    tag_18:\n      dup3\n      dup3\n      lt\n      iszero\n      tag_19\n      jumpi\n      dup4\n      dup3\n      swap1\n      0x00\n      mstore\n      keccak256(0x00, 0x20)\n      swap1\n      0x04\n      mul\n      add\n      mload(0x40)\n      dup1\n      0x80\n      add\n      0x40\n      mstore\n      swap1\n      dup2\n      0x00\n      dup3\n      add\n      dup1\n      sload\n      tag_21\n      swap1\n      tag_22\n      jump\t// in\n    tag_21:\n      dup1\n      0x1f\n      add\n      0x20\n      dup1\n      swap2\n      div\n      mul\n      0x20\n      add\n      mload(0x40)\n      swap1\n      dup2\n      add\n      0x40\n      mstore\n      dup1\n      swap3\n      swap2\n      swap1\n      dup2\n      dup2\n      mstore\n      0x20\n      add\n      dup3\n      dup1\n      sload\n      tag_23\n      swap1\n      tag_22\n      jump\t// in\n    tag_23:\n      dup1\n      iszero\n      tag_24\n      jumpi\n      dup1\n      0x1f\n      lt\n      tag_25\n      jumpi\n      0x0100\n      dup1\n      dup4\n      sload\n      div\n      mul\n      dup4\n      mstore\n      swap2\n      0x20\n      add\n      swap2\n      jump(tag_24)\n    tag_25:\n      dup3\n      add\n      swap2\n      swap1\n      0x00\n      mstore\n      keccak256(0x00, 0x20)\n      swap1\n    tag_26:\n      dup2\n      sload\n      dup2\n      mstore\n      swap1\n      0x01\n      add\n      swap1\n      0x20\n      add\n      dup1\n      dup4\n      gt\n      tag_26\n      jumpi\n      dup3\n      swap1\n      sub\n      0x1f\n      and\n      dup3\n      add\n      swap2\n    tag_24:\n      pop\n      pop\n      pop\n      pop\n      pop\n      dup2\n      mstore\n      0x20\n      add\n      0x01\n      dup3\n      add\n      dup1\n      sload\n      tag_27\n      swap1\n      tag_22\n      jump\t// in\n    tag_27:\n      dup1\n      0x1f\n      add\n      0x20\n      dup1\n      swap2\n      div\n      mul\n      0x20\n      add\n      mload(0x40)\n      swap1\n      dup2\n      add\n      0x40\n      mstore\n      dup1\n      swap3\n      swap2\n      swap1\n      dup2\n      dup2\n      mstore\n      0x20\n      add\n      dup3\n      dup1\n      sload\n      tag_28\n      swap1\n      tag_22\n      jump\t// in\n    tag_28:\n      dup1\n      iszero\n      tag_29\n      jumpi\n      dup1\n      0x1f\n      lt\n      tag_30\n      jumpi\n      0x0100\n      dup1\n      dup4\n      sload\n      div\n      mul\n      dup4\n      mstore\n      swap2\n      0x20\n      add\n      swap2\n      jump(tag_29)\n    tag_30:\n      dup3\n      add\n      swap2\n      swap1\n      0x00\n      mstore\n      keccak256(0x00, 0x20)\n      swap1\n    tag_31:\n      dup2\n      sload\n      dup2\n      mstore\n      swap1\n      0x01\n      add\n      swap1\n      0x20\n      add\n      dup1\n      dup4\n      gt\n      tag_31\n      jumpi\n      dup3\n      swap1\n      sub\n      0x1f\n      and\n      dup3\n      add\n      swap2\n    tag_29:\n      pop\n      pop\n      pop\n      pop\n      pop\n      dup2\n      mstore\n      0x20\n      add\n      0x02\n      dup3\n      add\n      sload\n      dup2\n      mstore\n      0x20\n      add\n      0x03\n      dup3\n      add\n      0x00\n      swap1\n      sload\n      swap1\n      0x0100\n      exp\n      swap1\n      div\n      0xffffffffffffffffffffffffffffffffffffffff\n      and\n      0xffffffffffffffffffffffffffffffffffffffff\n      and\n      0xffffffffffffffffffffffffffffffffffffffff\n      and\n      dup2\n      mstore\n      pop\n      pop\n      dup2\n      mstore\n      0x20\n      add\n      swap1\n      0x01\n      add\n      swap1\n      jump(tag_18)\n    tag_19:\n      pop\n      pop\n      pop\n      pop\n      swap1\n      pop\n        /* \"LogManager.sol\":1457:1643  function getLogs(string memory _deviceId) public view returns (LogEntry[] memory){... */\n      swap2\n      swap1\n      pop\n      jump\t// out\n        /* \"LogManager.sol\":806:1386  function recordLog(string memory _deviceId, string memory _fileName, string memory _ipfsHash) public{... */\n    tag_14:\n        /* \"LogManager.sol\":1026:1050  LogEntry memory newEntry */\n      0x00\n        /* \"LogManager.sol\":1053:1218  LogEntry({... */\n      mload(0x40)\n      dup1\n      0x80\n      add\n      0x40\n      mstore\n      dup1\n        /* \"LogManager.sol\":1087:1096  _ipfsHash */\n      dup4\n        /* \"LogManager.sol\":1053:1218  LogEntry({... */\n      dup2\n      mstore\n      0x20\n      add\n        /* \"LogManager.sol\":1121:1130  _fileName */\n      dup5\n        /* \"LogManager.sol\":1053:1218  LogEntry({... */\n      dup2\n      mstore\n      0x20\n      add\n        /* \"LogManager.sol\":1156:1171  block.timestamp */\n      timestamp\n        /* \"LogManager.sol\":1053:1218  LogEntry({... */\n      dup2\n      mstore\n      0x20\n      add\n        /* \"LogManager.sol\":1196:1206  msg.sender */\n      caller\n        /* \"LogManager.sol\":1053:1218  LogEntry({... */\n      0xffffffffffffffffffffffffffffffffffffffff\n      and\n      dup2\n      mstore\n      pop\n        /* \"LogManager.sol\":1026:1218  LogEntry memory newEntry = LogEntry({... */\n      swap1\n      pop\n        /* \"LogManager.sol\":1229:1239  deviceLogs */\n      0x00\n        /* \"LogManager.sol\":1240:1249  _deviceId */\n      dup5\n        /* \"LogManager.sol\":1229:1250  deviceLogs[_deviceId] */\n      mload(0x40)\n      tag_33\n      swap2\n      swap1\n      tag_17\n      jump\t// in\n    tag_33:\n      swap1\n      dup2\n      mstore\n      0x20\n      add\n      mload(0x40)\n      dup1\n      swap2\n      sub\n      swap1\n      keccak256\n        /* \"LogManager.sol\":1256:1264  newEntry */\n      dup2\n        /* \"LogManager.sol\":1229:1265  deviceLogs[_deviceId].push(newEntry) */\n      swap1\n      dup1\n      0x01\n      dup2\n      sload\n      add\n      dup1\n      dup3\n      sstore\n      dup1\n      swap2\n      pop\n      pop\n      0x01\n      swap1\n      sub\n      swap1\n      0x00\n      mstore\n      keccak256(0x00, 0x20)\n      swap1\n      0x04\n      mul\n      add\n      0x00\n      swap1\n      swap2\n      swap1\n      swap2\n      swap1\n      swap2\n      pop\n      0x00\n      dup3\n      add\n      mload\n      dup2\n      0x00\n      add\n      swap1\n      dup1\n      mload\n      swap1\n      0x20\n      add\n      swap1\n      tag_35\n      swap3\n      swap2\n      swap1\n      tag_36\n      jump\t// in\n    tag_35:\n      pop\n      0x20\n      dup3\n      add\n      mload\n      dup2\n      0x01\n      add\n      swap1\n      dup1\n      mload\n      swap1\n      0x20\n      add\n      swap1\n      tag_37\n      swap3\n      swap2\n      swap1\n      tag_36\n      jump\t// in\n    tag_37:\n      pop\n      0x40\n      dup3\n      add\n      mload\n      dup2\n      0x02\n      add\n      sstore\n      0x60\n      dup3\n      add\n      mload\n      dup2\n      0x03\n      add\n      exp(0x0100, 0x00)\n      dup2\n      sload\n      dup2\n      0xffffffffffffffffffffffffffffffffffffffff\n      mul\n      not\n      and\n      swap1\n      dup4\n      0xffffffffffffffffffffffffffffffffffffffff\n      and\n      mul\n      or\n      swap1\n      sstore\n      pop\n      pop\n      pop\n        /* \"LogManager.sol\":1329:1338  _deviceId */\n      dup4\n        /* \"LogManager.sol\":1317:1378  LogRecorded(_deviceId, _fileName, _ipfsHash, block.timestamp) */\n      mload(0x40)\n      tag_38\n      swap2\n      swap1\n      tag_17\n      jump\t// in\n    tag_38:\n      mload(0x40)\n      dup1\n      swap2\n      sub\n      swap1\n      keccak256\n      0x880b35bbbe2e8d568a6fd44138858b87aec3b8681d36cb405ba664f398a833cb\n        /* \"LogManager.sol\":1340:1349  _fileName */\n      dup5\n        /* \"LogManager.sol\":1351:1360  _ipfsHash */\n      dup5\n        /* \"LogManager.sol\":1362:1377  block.timestamp */\n      timestamp\n        /* \"LogManager.sol\":1317:1378  LogRecorded(_deviceId, _fileName, _ipfsHash, block.timestamp) */\n      mload(0x40)\n      tag_39\n      swap4\n      swap3\n      swap2\n      swap1\n      tag_40\n      jump\t// in\n    tag_39:\n      mload(0x40)\n      dup1\n      swap2\n      sub\n      swap1\n      log2\n        /* \"LogManager.sol\":906:1386  {... */\n      pop\n        /* \"LogManager.sol\":806:1386  function recordLog(string memory _deviceId, string memory _fileName, string memory _ipfsHash) public{... */\n      pop\n      pop\n      pop\n      jump\t// out\n    tag_36:\n      dup3\n      dup1\n      sload\n      tag_41\n      swap1\n      tag_22\n      jump\t// in\n    tag_41:\n      swap1\n      0x00\n      mstore\n      keccak256(0x00, 0x20)\n      swap1\n      0x1f\n      add\n      0x20\n      swap1\n      div\n      dup2\n      add\n      swap3\n      dup3\n      tag_43\n      jumpi\n      0x00\n      dup6\n      sstore\n      jump(tag_42)\n    tag_43:\n      dup3\n      0x1f\n      lt\n      tag_44\n      jumpi\n      dup1\n      mload\n      not(0xff)\n      and\n      dup4\n      dup1\n      add\n      or\n      dup6\n      sstore\n      jump(tag_42)\n    tag_44:\n      dup3\n      dup1\n      add\n      0x01\n      add\n      dup6\n      sstore\n      dup3\n      iszero\n      tag_42\n      jumpi\n      swap2\n      dup3\n      add\n    tag_45:\n      dup3\n      dup2\n      gt\n      iszero\n      tag_46\n      jumpi\n      dup3\n      mload\n      dup3\n      sstore\n      swap2\n      0x20\n      add\n      swap2\n      swap1\n      0x01\n      add\n      swap1\n      jump(tag_45)\n    tag_46:\n    tag_42:\n      pop\n      swap1\n      pop\n      tag_47\n      swap2\n      swap1\n      tag_48\n      jump\t// in\n    tag_47:\n      pop\n      swap1\n      jump\t// out\n    tag_48:\n    tag_49:\n      dup1\n      dup3\n      gt\n      iszero\n      tag_50\n      jumpi\n      0x00\n      dup2\n      0x00\n      swap1\n      sstore\n      pop\n      0x01\n      add\n      jump(tag_49)\n    tag_50:\n      pop\n      swap1\n      jump\t// out\n        /* \"#utility.yul\":7:82   */\n    tag_51:\n        /* \"#utility.yul\":40:46   */\n      0x00\n        /* \"#utility.yul\":73:75   */\n      0x40\n        /* \"#utility.yul\":67:76   */\n      mload\n        /* \"#utility.yul\":57:76   */\n      swap1\n      pop\n        /* \"#utility.yul\":7:82   */\n      swap1\n      jump\t// out\n        /* \"#utility.yul\":88:205   */\n    tag_52:\n        /* \"#utility.yul\":197:198   */\n      0x00\n        /* \"#utility.yul\":194:195   */\n      dup1\n        /* \"#utility.yul\":187:199   */\n      revert\n        /* \"#utility.yul\":211:328   */\n    tag_53:\n        /* \"#utility.yul\":320:321   */\n      0x00\n        /* \"#utility.yul\":317:318   */\n      dup1\n        /* \"#utility.yul\":310:322   */\n      revert\n        /* \"#utility.yul\":334:451   */\n    tag_54:\n        /* \"#utility.yul\":443:444   */\n      0x00\n        /* \"#utility.yul\":440:441   */\n      dup1\n        /* \"#utility.yul\":433:445   */\n      revert\n        /* \"#utility.yul\":457:574   */\n    tag_55:\n        /* \"#utility.yul\":566:567   */\n      0x00\n        /* \"#utility.yul\":563:564   */\n      dup1\n        /* \"#utility.yul\":556:568   */\n      revert\n        /* \"#utility.yul\":580:682   */\n    tag_56:\n        /* \"#utility.yul\":621:627   */\n      0x00\n        /* \"#utility.yul\":672:674   */\n      0x1f\n        /* \"#utility.yul\":668:675   */\n      not\n        /* \"#utility.yul\":663:665   */\n      0x1f\n        /* \"#utility.yul\":656:661   */\n      dup4\n        /* \"#utility.yul\":652:666   */\n      add\n        /* \"#utility.yul\":648:676   */\n      and\n        /* \"#utility.yul\":638:676   */\n      swap1\n      pop\n        /* \"#utility.yul\":580:682   */\n      swap2\n      swap1\n      pop\n      jump\t// out\n        /* \"#utility.yul\":688:868   */\n    tag_57:\n        /* \"#utility.yul\":736:813   */\n      0x4e487b7100000000000000000000000000000000000000000000000000000000\n        /* \"#utility.yul\":733:734   */\n      0x00\n        /* \"#utility.yul\":726:814   */\n      mstore\n        /* \"#utility.yul\":833:837   */\n      0x41\n        /* \"#utility.yul\":830:831   */\n      0x04\n        /* \"#utility.yul\":823:838   */\n      mstore\n        /* \"#utility.yul\":857:861   */\n      0x24\n        /* \"#utility.yul\":854:855   */\n      0x00\n        /* \"#utility.yul\":847:862   */\n      revert\n        /* \"#utility.yul\":874:1155   */\n    tag_58:\n        /* \"#utility.yul\":957:984   */\n      tag_95\n        /* \"#utility.yul\":979:983   */\n      dup3\n        /* \"#utility.yul\":957:984   */\n      tag_56\n      jump\t// in\n    tag_95:\n        /* \"#utility.yul\":949:955   */\n      dup2\n        /* \"#utility.yul\":945:985   */\n      add\n        /* \"#utility.yul\":1087:1093   */\n      dup2\n        /* \"#utility.yul\":1075:1085   */\n      dup2\n        /* \"#utility.yul\":1072:1094   */\n      lt\n        /* \"#utility.yul\":1051:1069   */\n      0xffffffffffffffff\n        /* \"#utility.yul\":1039:1049   */\n      dup3\n        /* \"#utility.yul\":1036:1070   */\n      gt\n        /* \"#utility.yul\":1033:1095   */\n      or\n        /* \"#utility.yul\":1030:1118   */\n      iszero\n      tag_96\n      jumpi\n        /* \"#utility.yul\":1098:1116   */\n      tag_97\n      tag_57\n      jump\t// in\n    tag_97:\n        /* \"#utility.yul\":1030:1118   */\n    tag_96:\n        /* \"#utility.yul\":1138:1148   */\n      dup1\n        /* \"#utility.yul\":1134:1136   */\n      0x40\n        /* \"#utility.yul\":1127:1149   */\n      mstore\n        /* \"#utility.yul\":917:1155   */\n      pop\n        /* \"#utility.yul\":874:1155   */\n      pop\n      pop\n      jump\t// out\n        /* \"#utility.yul\":1161:1290   */\n    tag_59:\n        /* \"#utility.yul\":1195:1201   */\n      0x00\n        /* \"#utility.yul\":1222:1242   */\n      tag_99\n      tag_51\n      jump\t// in\n    tag_99:\n        /* \"#utility.yul\":1212:1242   */\n      swap1\n      pop\n        /* \"#utility.yul\":1251:1284   */\n      tag_100\n        /* \"#utility.yul\":1279:1283   */\n      dup3\n        /* \"#utility.yul\":1271:1277   */\n      dup3\n        /* \"#utility.yul\":1251:1284   */\n      tag_58\n      jump\t// in\n    tag_100:\n        /* \"#utility.yul\":1161:1290   */\n      swap2\n      swap1\n      pop\n      jump\t// out\n        /* \"#utility.yul\":1296:1604   */\n    tag_60:\n        /* \"#utility.yul\":1358:1362   */\n      0x00\n        /* \"#utility.yul\":1448:1466   */\n      0xffffffffffffffff\n        /* \"#utility.yul\":1440:1446   */\n      dup3\n        /* \"#utility.yul\":1437:1467   */\n      gt\n        /* \"#utility.yul\":1434:1490   */\n      iszero\n      tag_102\n      jumpi\n        /* \"#utility.yul\":1470:1488   */\n      tag_103\n      tag_57\n      jump\t// in\n    tag_103:\n        /* \"#utility.yul\":1434:1490   */\n    tag_102:\n        /* \"#utility.yul\":1508:1537   */\n      tag_104\n        /* \"#utility.yul\":1530:1536   */\n      dup3\n        /* \"#utility.yul\":1508:1537   */\n      tag_56\n      jump\t// in\n    tag_104:\n        /* \"#utility.yul\":1500:1537   */\n      swap1\n      pop\n        /* \"#utility.yul\":1592:1596   */\n      0x20\n        /* \"#utility.yul\":1586:1590   */\n      dup2\n        /* \"#utility.yul\":1582:1597   */\n      add\n        /* \"#utility.yul\":1574:1597   */\n      swap1\n      pop\n        /* \"#utility.yul\":1296:1604   */\n      swap2\n      swap1\n      pop\n      jump\t// out\n        /* \"#utility.yul\":1610:1764   */\n    tag_61:\n        /* \"#utility.yul\":1694:1700   */\n      dup3\n        /* \"#utility.yul\":1689:1692   */\n      dup2\n        /* \"#utility.yul\":1684:1687   */\n      dup4\n        /* \"#utility.yul\":1671:1701   */\n      calldatacopy\n        /* \"#utility.yul\":1756:1757   */\n      0x00\n        /* \"#utility.yul\":1747:1753   */\n      dup4\n        /* \"#utility.yul\":1742:1745   */\n      dup4\n        /* \"#utility.yul\":1738:1754   */\n      add\n        /* \"#utility.yul\":1731:1758   */\n      mstore\n        /* \"#utility.yul\":1610:1764   */\n      pop\n      pop\n      pop\n      jump\t// out\n        /* \"#utility.yul\":1770:2182   */\n    tag_62:\n        /* \"#utility.yul\":1848:1853   */\n      0x00\n        /* \"#utility.yul\":1873:1939   */\n      tag_107\n        /* \"#utility.yul\":1889:1938   */\n      tag_108\n        /* \"#utility.yul\":1931:1937   */\n      dup5\n        /* \"#utility.yul\":1889:1938   */\n      tag_60\n      jump\t// in\n    tag_108:\n        /* \"#utility.yul\":1873:1939   */\n      tag_59\n      jump\t// in\n    tag_107:\n        /* \"#utility.yul\":1864:1939   */\n      swap1\n      pop\n        /* \"#utility.yul\":1962:1968   */\n      dup3\n        /* \"#utility.yul\":1955:1960   */\n      dup2\n        /* \"#utility.yul\":1948:1969   */\n      mstore\n        /* \"#utility.yul\":2000:2004   */\n      0x20\n        /* \"#utility.yul\":1993:1998   */\n      dup2\n        /* \"#utility.yul\":1989:2005   */\n      add\n        /* \"#utility.yul\":2038:2041   */\n      dup5\n        /* \"#utility.yul\":2029:2035   */\n      dup5\n        /* \"#utility.yul\":2024:2027   */\n      dup5\n        /* \"#utility.yul\":2020:2036   */\n      add\n        /* \"#utility.yul\":2017:2042   */\n      gt\n        /* \"#utility.yul\":2014:2126   */\n      iszero\n      tag_109\n      jumpi\n        /* \"#utility.yul\":2045:2124   */\n      tag_110\n      tag_55\n      jump\t// in\n    tag_110:\n        /* \"#utility.yul\":2014:2126   */\n    tag_109:\n        /* \"#utility.yul\":2135:2176   */\n      tag_111\n        /* \"#utility.yul\":2169:2175   */\n      dup5\n        /* \"#utility.yul\":2164:2167   */\n      dup3\n        /* \"#utility.yul\":2159:2162   */\n      dup6\n        /* \"#utility.yul\":2135:2176   */\n      tag_61\n      jump\t// in\n    tag_111:\n        /* \"#utility.yul\":1854:2182   */\n      pop\n        /* \"#utility.yul\":1770:2182   */\n      swap4\n      swap3\n      pop\n      pop\n      pop\n      jump\t// out\n        /* \"#utility.yul\":2202:2542   */\n    tag_63:\n        /* \"#utility.yul\":2258:2263   */\n      0x00\n        /* \"#utility.yul\":2307:2310   */\n      dup3\n        /* \"#utility.yul\":2300:2304   */\n      0x1f\n        /* \"#utility.yul\":2292:2298   */\n      dup4\n        /* \"#utility.yul\":2288:2305   */\n      add\n        /* \"#utility.yul\":2284:2311   */\n      slt\n        /* \"#utility.yul\":2274:2396   */\n      tag_113\n      jumpi\n        /* \"#utility.yul\":2315:2394   */\n      tag_114\n      tag_54\n      jump\t// in\n    tag_114:\n        /* \"#utility.yul\":2274:2396   */\n    tag_113:\n        /* \"#utility.yul\":2432:2438   */\n      dup2\n        /* \"#utility.yul\":2419:2439   */\n      calldataload\n        /* \"#utility.yul\":2457:2536   */\n      tag_115\n        /* \"#utility.yul\":2532:2535   */\n      dup5\n        /* \"#utility.yul\":2524:2530   */\n      dup3\n        /* \"#utility.yul\":2517:2521   */\n      0x20\n        /* \"#utility.yul\":2509:2515   */\n      dup7\n        /* \"#utility.yul\":2505:2522   */\n      add\n        /* \"#utility.yul\":2457:2536   */\n      tag_62\n      jump\t// in\n    tag_115:\n        /* \"#utility.yul\":2448:2536   */\n      swap2\n      pop\n        /* \"#utility.yul\":2264:2542   */\n      pop\n        /* \"#utility.yul\":2202:2542   */\n      swap3\n      swap2\n      pop\n      pop\n      jump\t// out\n        /* \"#utility.yul\":2548:3057   */\n    tag_7:\n        /* \"#utility.yul\":2617:2623   */\n      0x00\n        /* \"#utility.yul\":2666:2668   */\n      0x20\n        /* \"#utility.yul\":2654:2663   */\n      dup3\n        /* \"#utility.yul\":2645:2652   */\n      dup5\n        /* \"#utility.yul\":2641:2664   */\n      sub\n        /* \"#utility.yul\":2637:2669   */\n      slt\n        /* \"#utility.yul\":2634:2753   */\n      iszero\n      tag_117\n      jumpi\n        /* \"#utility.yul\":2672:2751   */\n      tag_118\n      tag_52\n      jump\t// in\n    tag_118:\n        /* \"#utility.yul\":2634:2753   */\n    tag_117:\n        /* \"#utility.yul\":2820:2821   */\n      0x00\n        /* \"#utility.yul\":2809:2818   */\n      dup3\n        /* \"#utility.yul\":2805:2822   */\n      add\n        /* \"#utility.yul\":2792:2823   */\n      calldataload\n        /* \"#utility.yul\":2850:2868   */\n      0xffffffffffffffff\n        /* \"#utility.yul\":2842:2848   */\n      dup2\n        /* \"#utility.yul\":2839:2869   */\n      gt\n        /* \"#utility.yul\":2836:2953   */\n      iszero\n      tag_119\n      jumpi\n        /* \"#utility.yul\":2872:2951   */\n      tag_120\n      tag_53\n      jump\t// in\n    tag_120:\n        /* \"#utility.yul\":2836:2953   */\n    tag_119:\n        /* \"#utility.yul\":2977:3040   */\n      tag_121\n        /* \"#utility.yul\":3032:3039   */\n      dup5\n        /* \"#utility.yul\":3023:3029   */\n      dup3\n        /* \"#utility.yul\":3012:3021   */\n      dup6\n        /* \"#utility.yul\":3008:3030   */\n      add\n        /* \"#utility.yul\":2977:3040   */\n      tag_63\n      jump\t// in\n    tag_121:\n        /* \"#utility.yul\":2967:3040   */\n      swap2\n      pop\n        /* \"#utility.yul\":2763:3050   */\n      pop\n        /* \"#utility.yul\":2548:3057   */\n      swap3\n      swap2\n      pop\n      pop\n      jump\t// out\n        /* \"#utility.yul\":3063:3201   */\n    tag_64:\n        /* \"#utility.yul\":3154:3160   */\n      0x00\n        /* \"#utility.yul\":3188:3193   */\n      dup2\n        /* \"#utility.yul\":3182:3194   */\n      mload\n        /* \"#utility.yul\":3172:3194   */\n      swap1\n      pop\n        /* \"#utility.yul\":3063:3201   */\n      swap2\n      swap1\n      pop\n      jump\t// out\n        /* \"#utility.yul\":3207:3415   */\n    tag_65:\n        /* \"#utility.yul\":3330:3341   */\n      0x00\n        /* \"#utility.yul\":3364:3370   */\n      dup3\n        /* \"#utility.yul\":3359:3362   */\n      dup3\n        /* \"#utility.yul\":3352:3371   */\n      mstore\n        /* \"#utility.yul\":3404:3408   */\n      0x20\n        /* \"#utility.yul\":3399:3402   */\n      dup3\n        /* \"#utility.yul\":3395:3409   */\n      add\n        /* \"#utility.yul\":3380:3409   */\n      swap1\n      pop\n        /* \"#utility.yul\":3207:3415   */\n      swap3\n      swap2\n      pop\n      pop\n      jump\t// out\n        /* \"#utility.yul\":3421:3577   */\n    tag_66:\n        /* \"#utility.yul\":3512:3516   */\n      0x00\n        /* \"#utility.yul\":3535:3538   */\n      dup2\n        /* \"#utility.yul\":3527:3538   */\n      swap1\n      pop\n        /* \"#utility.yul\":3565:3569   */\n      0x20\n        /* \"#utility.yul\":3560:3563   */\n      dup3\n        /* \"#utility.yul\":3556:3570   */\n      add\n        /* \"#utility.yul\":3548:3570   */\n      swap1\n      pop\n        /* \"#utility.yul\":3421:3577   */\n      swap2\n      swap1\n      pop\n      jump\t// out\n        /* \"#utility.yul\":3583:3682   */\n    tag_67:\n        /* \"#utility.yul\":3635:3641   */\n      0x00\n        /* \"#utility.yul\":3669:3674   */\n      dup2\n        /* \"#utility.yul\":3663:3675   */\n      mload\n        /* \"#utility.yul\":3653:3675   */\n      swap1\n      pop\n        /* \"#utility.yul\":3583:3682   */\n      swap2\n      swap1\n      pop\n      jump\t// out\n        /* \"#utility.yul\":3688:3847   */\n    tag_68:\n        /* \"#utility.yul\":3762:3773   */\n      0x00\n        /* \"#utility.yul\":3796:3802   */\n      dup3\n        /* \"#utility.yul\":3791:3794   */\n      dup3\n        /* \"#utility.yul\":3784:3803   */\n      mstore\n        /* \"#utility.yul\":3836:3840   */\n      0x20\n        /* \"#utility.yul\":3831:3834   */\n      dup3\n        /* \"#utility.yul\":3827:3841   */\n      add\n        /* \"#utility.yul\":3812:3841   */\n      swap1\n      pop\n        /* \"#utility.yul\":3688:3847   */\n      swap3\n      swap2\n      pop\n      pop\n      jump\t// out\n        /* \"#utility.yul\":3853:4160   */\n    tag_69:\n        /* \"#utility.yul\":3921:3922   */\n      0x00\n        /* \"#utility.yul\":3931:4044   */\n    tag_128:\n        /* \"#utility.yul\":3945:3951   */\n      dup4\n        /* \"#utility.yul\":3942:3943   */\n      dup2\n        /* \"#utility.yul\":3939:3952   */\n      lt\n        /* \"#utility.yul\":3931:4044   */\n      iszero\n      tag_130\n      jumpi\n        /* \"#utility.yul\":4030:4031   */\n      dup1\n        /* \"#utility.yul\":4025:4028   */\n      dup3\n        /* \"#utility.yul\":4021:4032   */\n      add\n        /* \"#utility.yul\":4015:4033   */\n      mload\n        /* \"#utility.yul\":4011:4012   */\n      dup2\n        /* \"#utility.yul\":4006:4009   */\n      dup5\n        /* \"#utility.yul\":4002:4013   */\n      add\n        /* \"#utility.yul\":3995:4034   */\n      mstore\n        /* \"#utility.yul\":3967:3969   */\n      0x20\n        /* \"#utility.yul\":3964:3965   */\n      dup2\n        /* \"#utility.yul\":3960:3970   */\n      add\n        /* \"#utility.yul\":3955:3970   */\n      swap1\n      pop\n        /* \"#utility.yul\":3931:4044   */\n      jump(tag_128)\n    tag_130:\n        /* \"#utility.yul\":4062:4068   */\n      dup4\n        /* \"#utility.yul\":4059:4060   */\n      dup2\n        /* \"#utility.yul\":4056:4069   */\n      gt\n        /* \"#utility.yul\":4053:4154   */\n      iszero\n      tag_131\n      jumpi\n        /* \"#utility.yul\":4142:4143   */\n      0x00\n        /* \"#utility.yul\":4133:4139   */\n      dup5\n        /* \"#utility.yul\":4128:4131   */\n      dup5\n        /* \"#utility.yul\":4124:4140   */\n      add\n        /* \"#utility.yul\":4117:4144   */\n      mstore\n        /* \"#utility.yul\":4053:4154   */\n    tag_131:\n        /* \"#utility.yul\":3902:4160   */\n      pop\n        /* \"#utility.yul\":3853:4160   */\n      pop\n      pop\n      pop\n      jump\t// out\n        /* \"#utility.yul\":4166:4510   */\n    tag_70:\n        /* \"#utility.yul\":4244:4247   */\n      0x00\n        /* \"#utility.yul\":4272:4311   */\n      tag_133\n        /* \"#utility.yul\":4305:4310   */\n      dup3\n        /* \"#utility.yul\":4272:4311   */\n      tag_67\n      jump\t// in\n    tag_133:\n        /* \"#utility.yul\":4327:4388   */\n      tag_134\n        /* \"#utility.yul\":4381:4387   */\n      dup2\n        /* \"#utility.yul\":4376:4379   */\n      dup6\n        /* \"#utility.yul\":4327:4388   */\n      tag_68\n      jump\t// in\n    tag_134:\n        /* \"#utility.yul\":4320:4388   */\n      swap4\n      pop\n        /* \"#utility.yul\":4397:4449   */\n      tag_135\n        /* \"#utility.yul\":4442:4448   */\n      dup2\n        /* \"#utility.yul\":4437:4440   */\n      dup6\n        /* \"#utility.yul\":4430:4434   */\n      0x20\n        /* \"#utility.yul\":4423:4428   */\n      dup7\n        /* \"#utility.yul\":4419:4435   */\n      add\n        /* \"#utility.yul\":4397:4449   */\n      tag_69\n      jump\t// in\n    tag_135:\n        /* \"#utility.yul\":4474:4503   */\n      tag_136\n        /* \"#utility.yul\":4496:4502   */\n      dup2\n        /* \"#utility.yul\":4474:4503   */\n      tag_56\n      jump\t// in\n    tag_136:\n        /* \"#utility.yul\":4469:4472   */\n      dup5\n        /* \"#utility.yul\":4465:4504   */\n      add\n        /* \"#utility.yul\":4458:4504   */\n      swap2\n      pop\n        /* \"#utility.yul\":4248:4510   */\n      pop\n        /* \"#utility.yul\":4166:4510   */\n      swap3\n      swap2\n      pop\n      pop\n      jump\t// out\n        /* \"#utility.yul\":4516:4593   */\n    tag_71:\n        /* \"#utility.yul\":4553:4560   */\n      0x00\n        /* \"#utility.yul\":4582:4587   */\n      dup2\n        /* \"#utility.yul\":4571:4587   */\n      swap1\n      pop\n        /* \"#utility.yul\":4516:4593   */\n      swap2\n      swap1\n      pop\n      jump\t// out\n        /* \"#utility.yul\":4599:4707   */\n    tag_72:\n        /* \"#utility.yul\":4676:4700   */\n      tag_139\n        /* \"#utility.yul\":4694:4699   */\n      dup2\n        /* \"#utility.yul\":4676:4700   */\n      tag_71\n      jump\t// in\n    tag_139:\n        /* \"#utility.yul\":4671:4674   */\n      dup3\n        /* \"#utility.yul\":4664:4701   */\n      mstore\n        /* \"#utility.yul\":4599:4707   */\n      pop\n      pop\n      jump\t// out\n        /* \"#utility.yul\":4713:4839   */\n    tag_73:\n        /* \"#utility.yul\":4750:4757   */\n      0x00\n        /* \"#utility.yul\":4790:4832   */\n      0xffffffffffffffffffffffffffffffffffffffff\n        /* \"#utility.yul\":4783:4788   */\n      dup3\n        /* \"#utility.yul\":4779:4833   */\n      and\n        /* \"#utility.yul\":4768:4833   */\n      swap1\n      pop\n        /* \"#utility.yul\":4713:4839   */\n      swap2\n      swap1\n      pop\n      jump\t// out\n        /* \"#utility.yul\":4845:4941   */\n    tag_74:\n        /* \"#utility.yul\":4882:4889   */\n      0x00\n        /* \"#utility.yul\":4911:4935   */\n      tag_142\n        /* \"#utility.yul\":4929:4934   */\n      dup3\n        /* \"#utility.yul\":4911:4935   */\n      tag_73\n      jump\t// in\n    tag_142:\n        /* \"#utility.yul\":4900:4935   */\n      swap1\n      pop\n        /* \"#utility.yul\":4845:4941   */\n      swap2\n      swap1\n      pop\n      jump\t// out\n        /* \"#utility.yul\":4947:5055   */\n    tag_75:\n        /* \"#utility.yul\":5024:5048   */\n      tag_144\n        /* \"#utility.yul\":5042:5047   */\n      dup2\n        /* \"#utility.yul\":5024:5048   */\n      tag_74\n      jump\t// in\n    tag_144:\n        /* \"#utility.yul\":5019:5022   */\n      dup3\n        /* \"#utility.yul\":5012:5049   */\n      mstore\n        /* \"#utility.yul\":4947:5055   */\n      pop\n      pop\n      jump\t// out\n        /* \"#utility.yul\":5127:6157   */\n    tag_76:\n        /* \"#utility.yul\":5234:5237   */\n      0x00\n        /* \"#utility.yul\":5270:5274   */\n      0x80\n        /* \"#utility.yul\":5265:5268   */\n      dup4\n        /* \"#utility.yul\":5261:5275   */\n      add\n        /* \"#utility.yul\":5361:5365   */\n      0x00\n        /* \"#utility.yul\":5354:5359   */\n      dup4\n        /* \"#utility.yul\":5350:5366   */\n      add\n        /* \"#utility.yul\":5344:5367   */\n      mload\n        /* \"#utility.yul\":5414:5417   */\n      dup5\n        /* \"#utility.yul\":5408:5412   */\n      dup3\n        /* \"#utility.yul\":5404:5418   */\n      sub\n        /* \"#utility.yul\":5397:5401   */\n      0x00\n        /* \"#utility.yul\":5392:5395   */\n      dup7\n        /* \"#utility.yul\":5388:5402   */\n      add\n        /* \"#utility.yul\":5381:5419   */\n      mstore\n        /* \"#utility.yul\":5440:5513   */\n      tag_146\n        /* \"#utility.yul\":5508:5512   */\n      dup3\n        /* \"#utility.yul\":5494:5506   */\n      dup3\n        /* \"#utility.yul\":5440:5513   */\n      tag_70\n      jump\t// in\n    tag_146:\n        /* \"#utility.yul\":5432:5513   */\n      swap2\n      pop\n        /* \"#utility.yul\":5285:5524   */\n      pop\n        /* \"#utility.yul\":5610:5614   */\n      0x20\n        /* \"#utility.yul\":5603:5608   */\n      dup4\n        /* \"#utility.yul\":5599:5615   */\n      add\n        /* \"#utility.yul\":5593:5616   */\n      mload\n        /* \"#utility.yul\":5663:5666   */\n      dup5\n        /* \"#utility.yul\":5657:5661   */\n      dup3\n        /* \"#utility.yul\":5653:5667   */\n      sub\n        /* \"#utility.yul\":5646:5650   */\n      0x20\n        /* \"#utility.yul\":5641:5644   */\n      dup7\n        /* \"#utility.yul\":5637:5651   */\n      add\n        /* \"#utility.yul\":5630:5668   */\n      mstore\n        /* \"#utility.yul\":5689:5762   */\n      tag_147\n        /* \"#utility.yul\":5757:5761   */\n      dup3\n        /* \"#utility.yul\":5743:5755   */\n      dup3\n        /* \"#utility.yul\":5689:5762   */\n      tag_70\n      jump\t// in\n    tag_147:\n        /* \"#utility.yul\":5681:5762   */\n      swap2\n      pop\n        /* \"#utility.yul\":5534:5773   */\n      pop\n        /* \"#utility.yul\":5860:5864   */\n      0x40\n        /* \"#utility.yul\":5853:5858   */\n      dup4\n        /* \"#utility.yul\":5849:5865   */\n      add\n        /* \"#utility.yul\":5843:5866   */\n      mload\n        /* \"#utility.yul\":5879:5942   */\n      tag_148\n        /* \"#utility.yul\":5936:5940   */\n      0x40\n        /* \"#utility.yul\":5931:5934   */\n      dup7\n        /* \"#utility.yul\":5927:5941   */\n      add\n        /* \"#utility.yul\":5913:5925   */\n      dup3\n        /* \"#utility.yul\":5879:5942   */\n      tag_72\n      jump\t// in\n    tag_148:\n        /* \"#utility.yul\":5783:5952   */\n      pop\n        /* \"#utility.yul\":6038:6042   */\n      0x60\n        /* \"#utility.yul\":6031:6036   */\n      dup4\n        /* \"#utility.yul\":6027:6043   */\n      add\n        /* \"#utility.yul\":6021:6044   */\n      mload\n        /* \"#utility.yul\":6057:6120   */\n      tag_149\n        /* \"#utility.yul\":6114:6118   */\n      0x60\n        /* \"#utility.yul\":6109:6112   */\n      dup7\n        /* \"#utility.yul\":6105:6119   */\n      add\n        /* \"#utility.yul\":6091:6103   */\n      dup3\n        /* \"#utility.yul\":6057:6120   */\n      tag_75\n      jump\t// in\n    tag_149:\n        /* \"#utility.yul\":5962:6130   */\n      pop\n        /* \"#utility.yul\":6147:6151   */\n      dup1\n        /* \"#utility.yul\":6140:6151   */\n      swap2\n      pop\n        /* \"#utility.yul\":5239:6157   */\n      pop\n        /* \"#utility.yul\":5127:6157   */\n      swap3\n      swap2\n      pop\n      pop\n      jump\t// out\n        /* \"#utility.yul\":6163:6415   */\n    tag_77:\n        /* \"#utility.yul\":6280:6290   */\n      0x00\n        /* \"#utility.yul\":6315:6409   */\n      tag_151\n        /* \"#utility.yul\":6405:6408   */\n      dup4\n        /* \"#utility.yul\":6397:6403   */\n      dup4\n        /* \"#utility.yul\":6315:6409   */\n      tag_76\n      jump\t// in\n    tag_151:\n        /* \"#utility.yul\":6301:6409   */\n      swap1\n      pop\n        /* \"#utility.yul\":6163:6415   */\n      swap3\n      swap2\n      pop\n      pop\n      jump\t// out\n        /* \"#utility.yul\":6421:6558   */\n    tag_78:\n        /* \"#utility.yul\":6515:6519   */\n      0x00\n        /* \"#utility.yul\":6547:6551   */\n      0x20\n        /* \"#utility.yul\":6542:6545   */\n      dup3\n        /* \"#utility.yul\":6538:6552   */\n      add\n        /* \"#utility.yul\":6530:6552   */\n      swap1\n      pop\n        /* \"#utility.yul\":6421:6558   */\n      swap2\n      swap1\n      pop\n      jump\t// out\n        /* \"#utility.yul\":6634:7737   */\n    tag_79:\n        /* \"#utility.yul\":6801:6804   */\n      0x00\n        /* \"#utility.yul\":6830:6908   */\n      tag_154\n        /* \"#utility.yul\":6902:6907   */\n      dup3\n        /* \"#utility.yul\":6830:6908   */\n      tag_64\n      jump\t// in\n    tag_154:\n        /* \"#utility.yul\":6924:7034   */\n      tag_155\n        /* \"#utility.yul\":7027:7033   */\n      dup2\n        /* \"#utility.yul\":7022:7025   */\n      dup6\n        /* \"#utility.yul\":6924:7034   */\n      tag_65\n      jump\t// in\n    tag_155:\n        /* \"#utility.yul\":6917:7034   */\n      swap4\n      pop\n        /* \"#utility.yul\":7060:7063   */\n      dup4\n        /* \"#utility.yul\":7105:7109   */\n      0x20\n        /* \"#utility.yul\":7097:7103   */\n      dup3\n        /* \"#utility.yul\":7093:7110   */\n      mul\n        /* \"#utility.yul\":7088:7091   */\n      dup6\n        /* \"#utility.yul\":7084:7111   */\n      add\n        /* \"#utility.yul\":7135:7215   */\n      tag_156\n        /* \"#utility.yul\":7209:7214   */\n      dup6\n        /* \"#utility.yul\":7135:7215   */\n      tag_66\n      jump\t// in\n    tag_156:\n        /* \"#utility.yul\":7238:7245   */\n      dup1\n        /* \"#utility.yul\":7269:7270   */\n      0x00\n        /* \"#utility.yul\":7254:7692   */\n    tag_157:\n        /* \"#utility.yul\":7279:7285   */\n      dup6\n        /* \"#utility.yul\":7276:7277   */\n      dup2\n        /* \"#utility.yul\":7273:7286   */\n      lt\n        /* \"#utility.yul\":7254:7692   */\n      iszero\n      tag_159\n      jumpi\n        /* \"#utility.yul\":7350:7359   */\n      dup5\n        /* \"#utility.yul\":7344:7348   */\n      dup5\n        /* \"#utility.yul\":7340:7360   */\n      sub\n        /* \"#utility.yul\":7335:7338   */\n      dup10\n        /* \"#utility.yul\":7328:7361   */\n      mstore\n        /* \"#utility.yul\":7401:7407   */\n      dup2\n        /* \"#utility.yul\":7395:7408   */\n      mload\n        /* \"#utility.yul\":7429:7541   */\n      tag_160\n        /* \"#utility.yul\":7536:7540   */\n      dup6\n        /* \"#utility.yul\":7521:7534   */\n      dup3\n        /* \"#utility.yul\":7429:7541   */\n      tag_77\n      jump\t// in\n    tag_160:\n        /* \"#utility.yul\":7421:7541   */\n      swap5\n      pop\n        /* \"#utility.yul\":7564:7648   */\n      tag_161\n        /* \"#utility.yul\":7641:7647   */\n      dup4\n        /* \"#utility.yul\":7564:7648   */\n      tag_78\n      jump\t// in\n    tag_161:\n        /* \"#utility.yul\":7554:7648   */\n      swap3\n      pop\n        /* \"#utility.yul\":7677:7681   */\n      0x20\n        /* \"#utility.yul\":7672:7675   */\n      dup11\n        /* \"#utility.yul\":7668:7682   */\n      add\n        /* \"#utility.yul\":7661:7682   */\n      swap10\n      pop\n        /* \"#utility.yul\":7314:7692   */\n      pop\n        /* \"#utility.yul\":7301:7302   */\n      0x01\n        /* \"#utility.yul\":7298:7299   */\n      dup2\n        /* \"#utility.yul\":7294:7303   */\n      add\n        /* \"#utility.yul\":7289:7303   */\n      swap1\n      pop\n        /* \"#utility.yul\":7254:7692   */\n      jump(tag_157)\n    tag_159:\n        /* \"#utility.yul\":7258:7272   */\n      pop\n        /* \"#utility.yul\":7708:7712   */\n      dup3\n        /* \"#utility.yul\":7701:7712   */\n      swap8\n      pop\n        /* \"#utility.yul\":7728:7731   */\n      dup8\n        /* \"#utility.yul\":7721:7731   */\n      swap6\n      pop\n        /* \"#utility.yul\":6806:7737   */\n      pop\n      pop\n      pop\n      pop\n      pop\n        /* \"#utility.yul\":6634:7737   */\n      swap3\n      swap2\n      pop\n      pop\n      jump\t// out\n        /* \"#utility.yul\":7743:8212   */\n    tag_10:\n        /* \"#utility.yul\":7934:7938   */\n      0x00\n        /* \"#utility.yul\":7972:7974   */\n      0x20\n        /* \"#utility.yul\":7961:7970   */\n      dup3\n        /* \"#utility.yul\":7957:7975   */\n      add\n        /* \"#utility.yul\":7949:7975   */\n      swap1\n      pop\n        /* \"#utility.yul\":8021:8030   */\n      dup2\n        /* \"#utility.yul\":8015:8019   */\n      dup2\n        /* \"#utility.yul\":8011:8031   */\n      sub\n        /* \"#utility.yul\":8007:8008   */\n      0x00\n        /* \"#utility.yul\":7996:8005   */\n      dup4\n        /* \"#utility.yul\":7992:8009   */\n      add\n        /* \"#utility.yul\":7985:8032   */\n      mstore\n        /* \"#utility.yul\":8049:8205   */\n      tag_163\n        /* \"#utility.yul\":8200:8204   */\n      dup2\n        /* \"#utility.yul\":8191:8197   */\n      dup5\n        /* \"#utility.yul\":8049:8205   */\n      tag_79\n      jump\t// in\n    tag_163:\n        /* \"#utility.yul\":8041:8205   */\n      swap1\n      pop\n        /* \"#utility.yul\":7743:8212   */\n      swap3\n      swap2\n      pop\n      pop\n      jump\t// out\n        /* \"#utility.yul\":8218:9377   */\n    tag_13:\n        /* \"#utility.yul\":8325:8331   */\n      0x00\n        /* \"#utility.yul\":8333:8339   */\n      dup1\n        /* \"#utility.yul\":8341:8347   */\n      0x00\n        /* \"#utility.yul\":8390:8392   */\n      0x60\n        /* \"#utility.yul\":8378:8387   */\n      dup5\n        /* \"#utility.yul\":8369:8376   */\n      dup7\n        /* \"#utility.yul\":8365:8388   */\n      sub\n        /* \"#utility.yul\":8361:8393   */\n      slt\n        /* \"#utility.yul\":8358:8477   */\n      iszero\n      tag_165\n      jumpi\n        /* \"#utility.yul\":8396:8475   */\n      tag_166\n      tag_52\n      jump\t// in\n    tag_166:\n        /* \"#utility.yul\":8358:8477   */\n    tag_165:\n        /* \"#utility.yul\":8544:8545   */\n      0x00\n        /* \"#utility.yul\":8533:8542   */\n      dup5\n        /* \"#utility.yul\":8529:8546   */\n      add\n        /* \"#utility.yul\":8516:8547   */\n      calldataload\n        /* \"#utility.yul\":8574:8592   */\n      0xffffffffffffffff\n        /* \"#utility.yul\":8566:8572   */\n      dup2\n        /* \"#utility.yul\":8563:8593   */\n      gt\n        /* \"#utility.yul\":8560:8677   */\n      iszero\n      tag_167\n      jumpi\n        /* \"#utility.yul\":8596:8675   */\n      tag_168\n      tag_53\n      jump\t// in\n    tag_168:\n        /* \"#utility.yul\":8560:8677   */\n    tag_167:\n        /* \"#utility.yul\":8701:8764   */\n      tag_169\n        /* \"#utility.yul\":8756:8763   */\n      dup7\n        /* \"#utility.yul\":8747:8753   */\n      dup3\n        /* \"#utility.yul\":8736:8745   */\n      dup8\n        /* \"#utility.yul\":8732:8754   */\n      add\n        /* \"#utility.yul\":8701:8764   */\n      tag_63\n      jump\t// in\n    tag_169:\n        /* \"#utility.yul\":8691:8764   */\n      swap4\n      pop\n        /* \"#utility.yul\":8487:8774   */\n      pop\n        /* \"#utility.yul\":8841:8843   */\n      0x20\n        /* \"#utility.yul\":8830:8839   */\n      dup5\n        /* \"#utility.yul\":8826:8844   */\n      add\n        /* \"#utility.yul\":8813:8845   */\n      calldataload\n        /* \"#utility.yul\":8872:8890   */\n      0xffffffffffffffff\n        /* \"#utility.yul\":8864:8870   */\n      dup2\n        /* \"#utility.yul\":8861:8891   */\n      gt\n        /* \"#utility.yul\":8858:8975   */\n      iszero\n      tag_170\n      jumpi\n        /* \"#utility.yul\":8894:8973   */\n      tag_171\n      tag_53\n      jump\t// in\n    tag_171:\n        /* \"#utility.yul\":8858:8975   */\n    tag_170:\n        /* \"#utility.yul\":8999:9062   */\n      tag_172\n        /* \"#utility.yul\":9054:9061   */\n      dup7\n        /* \"#utility.yul\":9045:9051   */\n      dup3\n        /* \"#utility.yul\":9034:9043   */\n      dup8\n        /* \"#utility.yul\":9030:9052   */\n      add\n        /* \"#utility.yul\":8999:9062   */\n      tag_63\n      jump\t// in\n    tag_172:\n        /* \"#utility.yul\":8989:9062   */\n      swap3\n      pop\n        /* \"#utility.yul\":8784:9072   */\n      pop\n        /* \"#utility.yul\":9139:9141   */\n      0x40\n        /* \"#utility.yul\":9128:9137   */\n      dup5\n        /* \"#utility.yul\":9124:9142   */\n      add\n        /* \"#utility.yul\":9111:9143   */\n      calldataload\n        /* \"#utility.yul\":9170:9188   */\n      0xffffffffffffffff\n        /* \"#utility.yul\":9162:9168   */\n      dup2\n        /* \"#utility.yul\":9159:9189   */\n      gt\n        /* \"#utility.yul\":9156:9273   */\n      iszero\n      tag_173\n      jumpi\n        /* \"#utility.yul\":9192:9271   */\n      tag_174\n      tag_53\n      jump\t// in\n    tag_174:\n        /* \"#utility.yul\":9156:9273   */\n    tag_173:\n        /* \"#utility.yul\":9297:9360   */\n      tag_175\n        /* \"#utility.yul\":9352:9359   */\n      dup7\n        /* \"#utility.yul\":9343:9349   */\n      dup3\n        /* \"#utility.yul\":9332:9341   */\n      dup8\n        /* \"#utility.yul\":9328:9350   */\n      add\n        /* \"#utility.yul\":9297:9360   */\n      tag_63\n      jump\t// in\n    tag_175:\n        /* \"#utility.yul\":9287:9360   */\n      swap2\n      pop\n        /* \"#utility.yul\":9082:9370   */\n      pop\n        /* \"#utility.yul\":8218:9377   */\n      swap3\n      pop\n      swap3\n      pop\n      swap3\n      jump\t// out\n        /* \"#utility.yul\":9383:9531   */\n    tag_80:\n        /* \"#utility.yul\":9485:9496   */\n      0x00\n        /* \"#utility.yul\":9522:9525   */\n      dup2\n        /* \"#utility.yul\":9507:9525   */\n      swap1\n      pop\n        /* \"#utility.yul\":9383:9531   */\n      swap3\n      swap2\n      pop\n      pop\n      jump\t// out\n        /* \"#utility.yul\":9537:9914   */\n    tag_81:\n        /* \"#utility.yul\":9643:9646   */\n      0x00\n        /* \"#utility.yul\":9671:9710   */\n      tag_178\n        /* \"#utility.yul\":9704:9709   */\n      dup3\n        /* \"#utility.yul\":9671:9710   */\n      tag_67\n      jump\t// in\n    tag_178:\n        /* \"#utility.yul\":9726:9815   */\n      tag_179\n        /* \"#utility.yul\":9808:9814   */\n      dup2\n        /* \"#utility.yul\":9803:9806   */\n      dup6\n        /* \"#utility.yul\":9726:9815   */\n      tag_80\n      jump\t// in\n    tag_179:\n        /* \"#utility.yul\":9719:9815   */\n      swap4\n      pop\n        /* \"#utility.yul\":9824:9876   */\n      tag_180\n        /* \"#utility.yul\":9869:9875   */\n      dup2\n        /* \"#utility.yul\":9864:9867   */\n      dup6\n        /* \"#utility.yul\":9857:9861   */\n      0x20\n        /* \"#utility.yul\":9850:9855   */\n      dup7\n        /* \"#utility.yul\":9846:9862   */\n      add\n        /* \"#utility.yul\":9824:9876   */\n      tag_69\n      jump\t// in\n    tag_180:\n        /* \"#utility.yul\":9901:9907   */\n      dup1\n        /* \"#utility.yul\":9896:9899   */\n      dup5\n        /* \"#utility.yul\":9892:9908   */\n      add\n        /* \"#utility.yul\":9885:9908   */\n      swap2\n      pop\n        /* \"#utility.yul\":9647:9914   */\n      pop\n        /* \"#utility.yul\":9537:9914   */\n      swap3\n      swap2\n      pop\n      pop\n      jump\t// out\n        /* \"#utility.yul\":9920:10195   */\n    tag_17:\n        /* \"#utility.yul\":10052:10055   */\n      0x00\n        /* \"#utility.yul\":10074:10169   */\n      tag_182\n        /* \"#utility.yul\":10165:10168   */\n      dup3\n        /* \"#utility.yul\":10156:10162   */\n      dup5\n        /* \"#utility.yul\":10074:10169   */\n      tag_81\n      jump\t// in\n    tag_182:\n        /* \"#utility.yul\":10067:10169   */\n      swap2\n      pop\n        /* \"#utility.yul\":10186:10189   */\n      dup2\n        /* \"#utility.yul\":10179:10189   */\n      swap1\n      pop\n        /* \"#utility.yul\":9920:10195   */\n      swap3\n      swap2\n      pop\n      pop\n      jump\t// out\n        /* \"#utility.yul\":10201:10381   */\n    tag_82:\n        /* \"#utility.yul\":10249:10326   */\n      0x4e487b7100000000000000000000000000000000000000000000000000000000\n        /* \"#utility.yul\":10246:10247   */\n      0x00\n        /* \"#utility.yul\":10239:10327   */\n      mstore\n        /* \"#utility.yul\":10346:10350   */\n      0x22\n        /* \"#utility.yul\":10343:10344   */\n      0x04\n        /* \"#utility.yul\":10336:10351   */\n      mstore\n        /* \"#utility.yul\":10370:10374   */\n      0x24\n        /* \"#utility.yul\":10367:10368   */\n      0x00\n        /* \"#utility.yul\":10360:10375   */\n      revert\n        /* \"#utility.yul\":10387:10707   */\n    tag_22:\n        /* \"#utility.yul\":10431:10437   */\n      0x00\n        /* \"#utility.yul\":10468:10469   */\n      0x02\n        /* \"#utility.yul\":10462:10466   */\n      dup3\n        /* \"#utility.yul\":10458:10470   */\n      div\n        /* \"#utility.yul\":10448:10470   */\n      swap1\n      pop\n        /* \"#utility.yul\":10515:10516   */\n      0x01\n        /* \"#utility.yul\":10509:10513   */\n      dup3\n        /* \"#utility.yul\":10505:10517   */\n      and\n        /* \"#utility.yul\":10536:10554   */\n      dup1\n        /* \"#utility.yul\":10526:10607   */\n      tag_185\n      jumpi\n        /* \"#utility.yul\":10592:10596   */\n      0x7f\n        /* \"#utility.yul\":10584:10590   */\n      dup3\n        /* \"#utility.yul\":10580:10597   */\n      and\n        /* \"#utility.yul\":10570:10597   */\n      swap2\n      pop\n        /* \"#utility.yul\":10526:10607   */\n    tag_185:\n        /* \"#utility.yul\":10654:10656   */\n      0x20\n        /* \"#utility.yul\":10646:10652   */\n      dup3\n        /* \"#utility.yul\":10643:10657   */\n      lt\n        /* \"#utility.yul\":10623:10641   */\n      dup2\n        /* \"#utility.yul\":10620:10658   */\n      sub\n        /* \"#utility.yul\":10617:10701   */\n      tag_186\n      jumpi\n        /* \"#utility.yul\":10673:10691   */\n      tag_187\n      tag_82\n      jump\t// in\n    tag_187:\n        /* \"#utility.yul\":10617:10701   */\n    tag_186:\n        /* \"#utility.yul\":10438:10707   */\n      pop\n        /* \"#utility.yul\":10387:10707   */\n      swap2\n      swap1\n      pop\n      jump\t// out\n        /* \"#utility.yul\":10713:10882   */\n    tag_83:\n        /* \"#utility.yul\":10797:10808   */\n      0x00\n        /* \"#utility.yul\":10831:10837   */\n      dup3\n        /* \"#utility.yul\":10826:10829   */\n      dup3\n        /* \"#utility.yul\":10819:10838   */\n      mstore\n        /* \"#utility.yul\":10871:10875   */\n      0x20\n        /* \"#utility.yul\":10866:10869   */\n      dup3\n        /* \"#utility.yul\":10862:10876   */\n      add\n        /* \"#utility.yul\":10847:10876   */\n      swap1\n      pop\n        /* \"#utility.yul\":10713:10882   */\n      swap3\n      swap2\n      pop\n      pop\n      jump\t// out\n        /* \"#utility.yul\":10888:11252   */\n    tag_84:\n        /* \"#utility.yul\":10976:10979   */\n      0x00\n        /* \"#utility.yul\":11004:11043   */\n      tag_190\n        /* \"#utility.yul\":11037:11042   */\n      dup3\n        /* \"#utility.yul\":11004:11043   */\n      tag_67\n      jump\t// in\n    tag_190:\n        /* \"#utility.yul\":11059:11130   */\n      tag_191\n        /* \"#utility.yul\":11123:11129   */\n      dup2\n        /* \"#utility.yul\":11118:11121   */\n      dup6\n        /* \"#utility.yul\":11059:11130   */\n      tag_83\n      jump\t// in\n    tag_191:\n        /* \"#utility.yul\":11052:11130   */\n      swap4\n      pop\n        /* \"#utility.yul\":11139:11191   */\n      tag_192\n        /* \"#utility.yul\":11184:11190   */\n      dup2\n        /* \"#utility.yul\":11179:11182   */\n      dup6\n        /* \"#utility.yul\":11172:11176   */\n      0x20\n        /* \"#utility.yul\":11165:11170   */\n      dup7\n        /* \"#utility.yul\":11161:11177   */\n      add\n        /* \"#utility.yul\":11139:11191   */\n      tag_69\n      jump\t// in\n    tag_192:\n        /* \"#utility.yul\":11216:11245   */\n      tag_193\n        /* \"#utility.yul\":11238:11244   */\n      dup2\n        /* \"#utility.yul\":11216:11245   */\n      tag_56\n      jump\t// in\n    tag_193:\n        /* \"#utility.yul\":11211:11214   */\n      dup5\n        /* \"#utility.yul\":11207:11246   */\n      add\n        /* \"#utility.yul\":11200:11246   */\n      swap2\n      pop\n        /* \"#utility.yul\":10980:11252   */\n      pop\n        /* \"#utility.yul\":10888:11252   */\n      swap3\n      swap2\n      pop\n      pop\n      jump\t// out\n        /* \"#utility.yul\":11258:11376   */\n    tag_85:\n        /* \"#utility.yul\":11345:11369   */\n      tag_195\n        /* \"#utility.yul\":11363:11368   */\n      dup2\n        /* \"#utility.yul\":11345:11369   */\n      tag_71\n      jump\t// in\n    tag_195:\n        /* \"#utility.yul\":11340:11343   */\n      dup3\n        /* \"#utility.yul\":11333:11370   */\n      mstore\n        /* \"#utility.yul\":11258:11376   */\n      pop\n      pop\n      jump\t// out\n        /* \"#utility.yul\":11382:12006   */\n    tag_40:\n        /* \"#utility.yul\":11571:11575   */\n      0x00\n        /* \"#utility.yul\":11609:11611   */\n      0x60\n        /* \"#utility.yul\":11598:11607   */\n      dup3\n        /* \"#utility.yul\":11594:11612   */\n      add\n        /* \"#utility.yul\":11586:11612   */\n      swap1\n      pop\n        /* \"#utility.yul\":11658:11667   */\n      dup2\n        /* \"#utility.yul\":11652:11656   */\n      dup2\n        /* \"#utility.yul\":11648:11668   */\n      sub\n        /* \"#utility.yul\":11644:11645   */\n      0x00\n        /* \"#utility.yul\":11633:11642   */\n      dup4\n        /* \"#utility.yul\":11629:11646   */\n      add\n        /* \"#utility.yul\":11622:11669   */\n      mstore\n        /* \"#utility.yul\":11686:11764   */\n      tag_197\n        /* \"#utility.yul\":11759:11763   */\n      dup2\n        /* \"#utility.yul\":11750:11756   */\n      dup7\n        /* \"#utility.yul\":11686:11764   */\n      tag_84\n      jump\t// in\n    tag_197:\n        /* \"#utility.yul\":11678:11764   */\n      swap1\n      pop\n        /* \"#utility.yul\":11811:11820   */\n      dup2\n        /* \"#utility.yul\":11805:11809   */\n      dup2\n        /* \"#utility.yul\":11801:11821   */\n      sub\n        /* \"#utility.yul\":11796:11798   */\n      0x20\n        /* \"#utility.yul\":11785:11794   */\n      dup4\n        /* \"#utility.yul\":11781:11799   */\n      add\n        /* \"#utility.yul\":11774:11822   */\n      mstore\n        /* \"#utility.yul\":11839:11917   */\n      tag_198\n        /* \"#utility.yul\":11912:11916   */\n      dup2\n        /* \"#utility.yul\":11903:11909   */\n      dup6\n        /* \"#utility.yul\":11839:11917   */\n      tag_84\n      jump\t// in\n    tag_198:\n        /* \"#utility.yul\":11831:11917   */\n      swap1\n      pop\n        /* \"#utility.yul\":11927:11999   */\n      tag_199\n        /* \"#utility.yul\":11995:11997   */\n      0x40\n        /* \"#utility.yul\":11984:11993   */\n      dup4\n        /* \"#utility.yul\":11980:11998   */\n      add\n        /* \"#utility.yul\":11971:11977   */\n      dup5\n        /* \"#utility.yul\":11927:11999   */\n      tag_85\n      jump\t// in\n    tag_199:\n        /* \"#utility.yul\":11382:12006   */\n      swap5\n      swap4\n      pop\n      pop\n      pop\n      pop\n      jump\t// out\n\n    auxdata: 0xa2646970667358221220934cc2ca562a7db7fb0ade10db090720f026fa9a87e7936ea8bddb4880aabb8464736f6c634300080e0033\n}\n",
				"bytecode": {
					"linkReferences": {},
					"object": "608060405234801561001057600080fd5b50610a93806100206000396000f3fe608060405234801561001057600080fd5b50600436106100365760003560e01c80631c0b75e81461003b5780635178e3dd1461006b575b600080fd5b610055600480360381019061005091906105ec565b610087565b6040516100629190610843565b60405180910390f35b61008560048036038101906100809190610865565b610288565b005b60606000826040516100999190610948565b9081526020016040518091039020805480602002602001604051908101604052809291908181526020016000905b8282101561027d57838290600052602060002090600402016040518060800160405290816000820180546100fa9061098e565b80601f01602080910402602001604051908101604052809291908181526020018280546101269061098e565b80156101735780601f1061014857610100808354040283529160200191610173565b820191906000526020600020905b81548152906001019060200180831161015657829003601f168201915b5050505050815260200160018201805461018c9061098e565b80601f01602080910402602001604051908101604052809291908181526020018280546101b89061098e565b80156102055780601f106101da57610100808354040283529160200191610205565b820191906000526020600020905b8154815290600101906020018083116101e857829003601f168201915b50505050508152602001600282015481526020016003820160009054906101000a900473ffffffffffffffffffffffffffffffffffffffff1673ffffffffffffffffffffffffffffffffffffffff1673ffffffffffffffffffffffffffffffffffffffff1681525050815260200190600101906100c7565b505050509050919050565b600060405180608001604052808381526020018481526020014281526020013373ffffffffffffffffffffffffffffffffffffffff1681525090506000846040516102d39190610948565b908152602001604051809103902081908060018154018082558091505060019003906000526020600020906004020160009091909190915060008201518160000190805190602001906103279291906103ef565b5060208201518160010190805190602001906103449291906103ef565b506040820151816002015560608201518160030160006101000a81548173ffffffffffffffffffffffffffffffffffffffff021916908373ffffffffffffffffffffffffffffffffffffffff1602179055505050836040516103a69190610948565b60405180910390207f880b35bbbe2e8d568a6fd44138858b87aec3b8681d36cb405ba664f398a833cb8484426040516103e193929190610a18565b60405180910390a250505050565b8280546103fb9061098e565b90600052602060002090601f01602090048101928261041d5760008555610464565b82601f1061043657805160ff1916838001178555610464565b82800160010185558215610464579182015b82811115610463578251825591602001919060010190610448565b5b5090506104719190610475565b5090565b5b8082111561048e576000816000905550600101610476565b5090565b6000604051905090565b600080fd5b600080fd5b600080fd5b600080fd5b6000601f19601f8301169050919050565b7f4e487b7100000000000000000000000000000000000000000000000000000000600052604160045260246000fd5b6104f9826104b0565b810181811067ffffffffffffffff82111715610518576105176104c1565b5b80604052505050565b600061052b610492565b905061053782826104f0565b919050565b600067ffffffffffffffff821115610557576105566104c1565b5b610560826104b0565b9050602081019050919050565b82818337600083830152505050565b600061058f61058a8461053c565b610521565b9050828152602081018484840111156105ab576105aa6104ab565b5b6105b684828561056d565b509392505050565b600082601f8301126105d3576105d26104a6565b5b81356105e384826020860161057c565b91505092915050565b6000602082840312156106025761060161049c565b5b600082013567ffffffffffffffff8111156106205761061f6104a1565b5b61062c848285016105be565b91505092915050565b600081519050919050565b600082825260208201905092915050565b6000819050602082019050919050565b600081519050919050565b600082825260208201905092915050565b60005b8381101561069b578082015181840152602081019050610680565b838111156106aa576000848401525b50505050565b60006106bb82610661565b6106c5818561066c565b93506106d581856020860161067d565b6106de816104b0565b840191505092915050565b6000819050919050565b6106fc816106e9565b82525050565b600073ffffffffffffffffffffffffffffffffffffffff82169050919050565b600061072d82610702565b9050919050565b61073d81610722565b82525050565b6000608083016000830151848203600086015261076082826106b0565b9150506020830151848203602086015261077a82826106b0565b915050604083015161078f60408601826106f3565b5060608301516107a26060860182610734565b508091505092915050565b60006107b98383610743565b905092915050565b6000602082019050919050565b60006107d982610635565b6107e38185610640565b9350836020820285016107f585610651565b8060005b85811015610831578484038952815161081285826107ad565b945061081d836107c1565b925060208a019950506001810190506107f9565b50829750879550505050505092915050565b6000602082019050818103600083015261085d81846107ce565b905092915050565b60008060006060848603121561087e5761087d61049c565b5b600084013567ffffffffffffffff81111561089c5761089b6104a1565b5b6108a8868287016105be565b935050602084013567ffffffffffffffff8111156108c9576108c86104a1565b5b6108d5868287016105be565b925050604084013567ffffffffffffffff8111156108f6576108f56104a1565b5b610902868287016105be565b9150509250925092565b600081905092915050565b600061092282610661565b61092c818561090c565b935061093c81856020860161067d565b80840191505092915050565b60006109548284610917565b915081905092915050565b7f4e487b7100000000000000000000000000000000000000000000000000000000600052602260045260246000fd5b600060028204905060018216806109a657607f821691505b6020821081036109b9576109b861095f565b5b50919050565b600082825260208201905092915050565b60006109db82610661565b6109e581856109bf565b93506109f581856020860161067d565b6109fe816104b0565b840191505092915050565b610a12816106e9565b82525050565b60006060820190508181036000830152610a3281866109d0565b90508181036020830152610a4681856109d0565b9050610a556040830184610a09565b94935050505056fea2646970667358221220934cc2ca562a7db7fb0ade10db090720f026fa9a87e7936ea8bddb4880aabb8464736f6c634300080e0033",
					"opcodes": "PUSH1 0x80 PUSH1 0x40 MSTORE CALLVALUE DUP1 ISZERO PUSH2 0x10 JUMPI PUSH1 0x0 DUP1 REVERT JUMPDEST POP PUSH2 0xA93 DUP1 PUSH2 0x20 PUSH1 0x0 CODECOPY PUSH1 0x0 RETURN INVALID PUSH1 0x80 PUSH1 0x40 MSTORE CALLVALUE DUP1 ISZERO PUSH2 0x10 JUMPI PUSH1 0x0 DUP1 REVERT JUMPDEST POP PUSH1 0x4 CALLDATASIZE LT PUSH2 0x36 JUMPI PUSH1 0x0 CALLDATALOAD PUSH1 0xE0 SHR DUP1 PUSH4 0x1C0B75E8 EQ PUSH2 0x3B JUMPI DUP1 PUSH4 0x5178E3DD EQ PUSH2 0x6B JUMPI JUMPDEST PUSH1 0x0 DUP1 REVERT JUMPDEST PUSH2 0x55 PUSH1 0x4 DUP1 CALLDATASIZE SUB DUP2 ADD SWAP1 PUSH2 0x50 SWAP2 SWAP1 PUSH2 0x5EC JUMP JUMPDEST PUSH2 0x87 JUMP JUMPDEST PUSH1 0x40 MLOAD PUSH2 0x62 SWAP2 SWAP1 PUSH2 0x843 JUMP JUMPDEST PUSH1 0x40 MLOAD DUP1 SWAP2 SUB SWAP1 RETURN JUMPDEST PUSH2 0x85 PUSH1 0x4 DUP1 CALLDATASIZE SUB DUP2 ADD SWAP1 PUSH2 0x80 SWAP2 SWAP1 PUSH2 0x865 JUMP JUMPDEST PUSH2 0x288 JUMP JUMPDEST STOP JUMPDEST PUSH1 0x60 PUSH1 0x0 DUP3 PUSH1 0x40 MLOAD PUSH2 0x99 SWAP2 SWAP1 PUSH2 0x948 JUMP JUMPDEST SWAP1 DUP2 MSTORE PUSH1 0x20 ADD PUSH1 0x40 MLOAD DUP1 SWAP2 SUB SWAP1 KECCAK256 DUP1 SLOAD DUP1 PUSH1 0x20 MUL PUSH1 0x20 ADD PUSH1 0x40 MLOAD SWAP1 DUP2 ADD PUSH1 0x40 MSTORE DUP1 SWAP3 SWAP2 SWAP1 DUP2 DUP2 MSTORE PUSH1 0x20 ADD PUSH1 0x0 SWAP1 JUMPDEST DUP3 DUP3 LT ISZERO PUSH2 0x27D JUMPI DUP4 DUP3 SWAP1 PUSH1 0x0 MSTORE PUSH1 0x20 PUSH1 0x0 KECCAK256 SWAP1 PUSH1 0x4 MUL ADD PUSH1 0x40 MLOAD DUP1 PUSH1 0x80 ADD PUSH1 0x40 MSTORE SWAP1 DUP2 PUSH1 0x0 DUP3 ADD DUP1 SLOAD PUSH2 0xFA SWAP1 PUSH2 0x98E JUMP JUMPDEST DUP1 PUSH1 0x1F ADD PUSH1 0x20 DUP1 SWAP2 DIV MUL PUSH1 0x20 ADD PUSH1 0x40 MLOAD SWAP1 DUP2 ADD PUSH1 0x40 MSTORE DUP1 SWAP3 SWAP2 SWAP1 DUP2 DUP2 MSTORE PUSH1 0x20 ADD DUP3 DUP1 SLOAD PUSH2 0x126 SWAP1 PUSH2 0x98E JUMP JUMPDEST DUP1 ISZERO PUSH2 0x173 JUMPI DUP1 PUSH1 0x1F LT PUSH2 0x148 JUMPI PUSH2 0x100 DUP1 DUP4 SLOAD DIV MUL DUP4 MSTORE SWAP2 PUSH1 0x20 ADD SWAP2 PUSH2 0x173 JUMP JUMPDEST DUP3 ADD SWAP2 SWAP1 PUSH1 0x0 MSTORE PUSH1 0x20 PUSH1 0x0 KECCAK256 SWAP1 JUMPDEST DUP2 SLOAD DUP2 MSTORE SWAP1 PUSH1 0x1 ADD SWAP1 PUSH1 0x20 ADD DUP1 DUP4 GT PUSH2 0x156 JUMPI DUP3 SWAP1 SUB PUSH1 0x1F AND DUP3 ADD SWAP2 JUMPDEST POP POP POP POP POP DUP2 MSTORE PUSH1 0x20 ADD PUSH1 0x1 DUP3 ADD DUP1 SLOAD PUSH2 0x18C SWAP1 PUSH2 0x98E JUMP JUMPDEST DUP1 PUSH1 0x1F ADD PUSH1 0x20 DUP1 SWAP2 DIV MUL PUSH1 0x20 ADD PUSH1 0x40 MLOAD SWAP1 DUP2 ADD PUSH1 0x40 MSTORE DUP1 SWAP3 SWAP2 SWAP1 DUP2 DUP2 MSTORE PUSH1 0x20 ADD DUP3 DUP1 SLOAD PUSH2 0x1B8 SWAP1 PUSH2 0x98E JUMP JUMPDEST DUP1 ISZERO PUSH2 0x205 JUMPI DUP1 PUSH1 0x1F LT PUSH2 0x1DA JUMPI PUSH2 0x100 DUP1 DUP4 SLOAD DIV MUL DUP4 MSTORE SWAP2 PUSH1 0x20 ADD SWAP2 PUSH2 0x205 JUMP JUMPDEST DUP3 ADD SWAP2 SWAP1 PUSH1 0x0 MSTORE PUSH1 0x20 PUSH1 0x0 KECCAK256 SWAP1 JUMPDEST DUP2 SLOAD DUP2 MSTORE SWAP1 PUSH1 0x1 ADD SWAP1 PUSH1 0x20 ADD DUP1 DUP4 GT PUSH2 0x1E8 JUMPI DUP3 SWAP1 SUB PUSH1 0x1F AND DUP3 ADD SWAP2 JUMPDEST POP POP POP POP POP DUP2 MSTORE PUSH1 0x20 ADD PUSH1 0x2 DUP3 ADD SLOAD DUP2 MSTORE PUSH1 0x20 ADD PUSH1 0x3 DUP3 ADD PUSH1 0x0 SWAP1 SLOAD SWAP1 PUSH2 0x100 EXP SWAP1 DIV PUSH20 0xFFFFFFFFFFFFFFFFFFFFFFFFFFFFFFFFFFFFFFFF AND PUSH20 0xFFFFFFFFFFFFFFFFFFFFFFFFFFFFFFFFFFFFFFFF AND PUSH20 0xFFFFFFFFFFFFFFFFFFFFFFFFFFFFFFFFFFFFFFFF AND DUP2 MSTORE POP POP DUP2 MSTORE PUSH1 0x20 ADD SWAP1 PUSH1 0x1 ADD SWAP1 PUSH2 0xC7 JUMP JUMPDEST POP POP POP POP SWAP1 POP SWAP2 SWAP1 POP JUMP JUMPDEST PUSH1 0x0 PUSH1 0x40 MLOAD DUP1 PUSH1 0x80 ADD PUSH1 0x40 MSTORE DUP1 DUP4 DUP2 MSTORE PUSH1 0x20 ADD DUP5 DUP2 MSTORE PUSH1 0x20 ADD TIMESTAMP DUP2 MSTORE PUSH1 0x20 ADD CALLER PUSH20 0xFFFFFFFFFFFFFFFFFFFFFFFFFFFFFFFFFFFFFFFF AND DUP2 MSTORE POP SWAP1 POP PUSH1 0x0 DUP5 PUSH1 0x40 MLOAD PUSH2 0x2D3 SWAP2 SWAP1 PUSH2 0x948 JUMP JUMPDEST SWAP1 DUP2 MSTORE PUSH1 0x20 ADD PUSH1 0x40 MLOAD DUP1 SWAP2 SUB SWAP1 KECCAK256 DUP2 SWAP1 DUP1 PUSH1 0x1 DUP2 SLOAD ADD DUP1 DUP3 SSTORE DUP1 SWAP2 POP POP PUSH1 0x1 SWAP1 SUB SWAP1 PUSH1 0x0 MSTORE PUSH1 0x20 PUSH1 0x0 KECCAK256 SWAP1 PUSH1 0x4 MUL ADD PUSH1 0x0 SWAP1 SWAP2 SWAP1 SWAP2 SWAP1 SWAP2 POP PUSH1 0x0 DUP3 ADD MLOAD DUP2 PUSH1 0x0 ADD SWAP1 DUP1 MLOAD SWAP1 PUSH1 0x20 ADD SWAP1 PUSH2 0x327 SWAP3 SWAP2 SWAP1 PUSH2 0x3EF JUMP JUMPDEST POP PUSH1 0x20 DUP3 ADD MLOAD DUP2 PUSH1 0x1 ADD SWAP1 DUP1 MLOAD SWAP1 PUSH1 0x20 ADD SWAP1 PUSH2 0x344 SWAP3 SWAP2 SWAP1 PUSH2 0x3EF JUMP JUMPDEST POP PUSH1 0x40 DUP3 ADD MLOAD DUP2 PUSH1 0x2 ADD SSTORE PUSH1 0x60 DUP3 ADD MLOAD DUP2 PUSH1 0x3 ADD PUSH1 0x0 PUSH2 0x100 EXP DUP2 SLOAD DUP2 PUSH20 0xFFFFFFFFFFFFFFFFFFFFFFFFFFFFFFFFFFFFFFFF MUL NOT AND SWAP1 DUP4 PUSH20 0xFFFFFFFFFFFFFFFFFFFFFFFFFFFFFFFFFFFFFFFF AND MUL OR SWAP1 SSTORE POP POP POP DUP4 PUSH1 0x40 MLOAD PUSH2 0x3A6 SWAP2 SWAP1 PUSH2 0x948 JUMP JUMPDEST PUSH1 0x40 MLOAD DUP1 SWAP2 SUB SWAP1 KECCAK256 PUSH32 0x880B35BBBE2E8D568A6FD44138858B87AEC3B8681D36CB405BA664F398A833CB DUP5 DUP5 TIMESTAMP PUSH1 0x40 MLOAD PUSH2 0x3E1 SWAP4 SWAP3 SWAP2 SWAP1 PUSH2 0xA18 JUMP JUMPDEST PUSH1 0x40 MLOAD DUP1 SWAP2 SUB SWAP1 LOG2 POP POP POP POP JUMP JUMPDEST DUP3 DUP1 SLOAD PUSH2 0x3FB SWAP1 PUSH2 0x98E JUMP JUMPDEST SWAP1 PUSH1 0x0 MSTORE PUSH1 0x20 PUSH1 0x0 KECCAK256 SWAP1 PUSH1 0x1F ADD PUSH1 0x20 SWAP1 DIV DUP2 ADD SWAP3 DUP3 PUSH2 0x41D JUMPI PUSH1 0x0 DUP6 SSTORE PUSH2 0x464 JUMP JUMPDEST DUP3 PUSH1 0x1F LT PUSH2 0x436 JUMPI DUP1 MLOAD PUSH1 0xFF NOT AND DUP4 DUP1 ADD OR DUP6 SSTORE PUSH2 0x464 JUMP JUMPDEST DUP3 DUP1 ADD PUSH1 0x1 ADD DUP6 SSTORE DUP3 ISZERO PUSH2 0x464 JUMPI SWAP2 DUP3 ADD JUMPDEST DUP3 DUP2 GT ISZERO PUSH2 0x463 JUMPI DUP3 MLOAD DUP3 SSTORE SWAP2 PUSH1 0x20 ADD SWAP2 SWAP1 PUSH1 0x1 ADD SWAP1 PUSH2 0x448 JUMP JUMPDEST JUMPDEST POP SWAP1 POP PUSH2 0x471 SWAP2 SWAP1 PUSH2 0x475 JUMP JUMPDEST POP SWAP1 JUMP JUMPDEST JUMPDEST DUP1 DUP3 GT ISZERO PUSH2 0x48E JUMPI PUSH1 0x0 DUP2 PUSH1 0x0 SWAP1 SSTORE POP PUSH1 0x1 ADD PUSH2 0x476 JUMP JUMPDEST POP SWAP1 JUMP JUMPDEST PUSH1 0x0 PUSH1 0x40 MLOAD SWAP1 POP SWAP1 JUMP JUMPDEST PUSH1 0x0 DUP1 REVERT JUMPDEST PUSH1 0x0 DUP1 REVERT JUMPDEST PUSH1 0x0 DUP1 REVERT JUMPDEST PUSH1 0x0 DUP1 REVERT JUMPDEST PUSH1 0x0 PUSH1 0x1F NOT PUSH1 0x1F DUP4 ADD AND SWAP1 POP SWAP2 SWAP1 POP JUMP JUMPDEST PUSH32 0x4E487B7100000000000000000000000000000000000000000000000000000000 PUSH1 0x0 MSTORE PUSH1 0x41 PUSH1 0x4 MSTORE PUSH1 0x24 PUSH1 0x0 REVERT JUMPDEST PUSH2 0x4F9 DUP3 PUSH2 0x4B0 JUMP JUMPDEST DUP2 ADD DUP2 DUP2 LT PUSH8 0xFFFFFFFFFFFFFFFF DUP3 GT OR ISZERO PUSH2 0x518 JUMPI PUSH2 0x517 PUSH2 0x4C1 JUMP JUMPDEST JUMPDEST DUP1 PUSH1 0x40 MSTORE POP POP POP JUMP JUMPDEST PUSH1 0x0 PUSH2 0x52B PUSH2 0x492 JUMP JUMPDEST SWAP1 POP PUSH2 0x537 DUP3 DUP3 PUSH2 0x4F0 JUMP JUMPDEST SWAP2 SWAP1 POP JUMP JUMPDEST PUSH1 0x0 PUSH8 0xFFFFFFFFFFFFFFFF DUP3 GT ISZERO PUSH2 0x557 JUMPI PUSH2 0x556 PUSH2 0x4C1 JUMP JUMPDEST JUMPDEST PUSH2 0x560 DUP3 PUSH2 0x4B0 JUMP JUMPDEST SWAP1 POP PUSH1 0x20 DUP2 ADD SWAP1 POP SWAP2 SWAP1 POP JUMP JUMPDEST DUP3 DUP2 DUP4 CALLDATACOPY PUSH1 0x0 DUP4 DUP4 ADD MSTORE POP POP POP JUMP JUMPDEST PUSH1 0x0 PUSH2 0x58F PUSH2 0x58A DUP5 PUSH2 0x53C JUMP JUMPDEST PUSH2 0x521 JUMP JUMPDEST SWAP1 POP DUP3 DUP2 MSTORE PUSH1 0x20 DUP2 ADD DUP5 DUP5 DUP5 ADD GT ISZERO PUSH2 0x5AB JUMPI PUSH2 0x5AA PUSH2 0x4AB JUMP JUMPDEST JUMPDEST PUSH2 0x5B6 DUP5 DUP3 DUP6 PUSH2 0x56D JUMP JUMPDEST POP SWAP4 SWAP3 POP POP POP JUMP JUMPDEST PUSH1 0x0 DUP3 PUSH1 0x1F DUP4 ADD SLT PUSH2 0x5D3 JUMPI PUSH2 0x5D2 PUSH2 0x4A6 JUMP JUMPDEST JUMPDEST DUP2 CALLDATALOAD PUSH2 0x5E3 DUP5 DUP3 PUSH1 0x20 DUP7 ADD PUSH2 0x57C JUMP JUMPDEST SWAP2 POP POP SWAP3 SWAP2 POP POP JUMP JUMPDEST PUSH1 0x0 PUSH1 0x20 DUP3 DUP5 SUB SLT ISZERO PUSH2 0x602 JUMPI PUSH2 0x601 PUSH2 0x49C JUMP JUMPDEST JUMPDEST PUSH1 0x0 DUP3 ADD CALLDATALOAD PUSH8 0xFFFFFFFFFFFFFFFF DUP2 GT ISZERO PUSH2 0x620 JUMPI PUSH2 0x61F PUSH2 0x4A1 JUMP JUMPDEST JUMPDEST PUSH2 0x62C DUP5 DUP3 DUP6 ADD PUSH2 0x5BE JUMP JUMPDEST SWAP2 POP POP SWAP3 SWAP2 POP POP JUMP JUMPDEST PUSH1 0x0 DUP2 MLOAD SWAP1 POP SWAP2 SWAP1 POP JUMP JUMPDEST PUSH1 0x0 DUP3 DUP3 MSTORE PUSH1 0x20 DUP3 ADD SWAP1 POP SWAP3 SWAP2 POP POP JUMP JUMPDEST PUSH1 0x0 DUP2 SWAP1 POP PUSH1 0x20 DUP3 ADD SWAP1 POP SWAP2 SWAP1 POP JUMP JUMPDEST PUSH1 0x0 DUP2 MLOAD SWAP1 POP SWAP2 SWAP1 POP JUMP JUMPDEST PUSH1 0x0 DUP3 DUP3 MSTORE PUSH1 0x20 DUP3 ADD SWAP1 POP SWAP3 SWAP2 POP POP JUMP JUMPDEST PUSH1 0x0 JUMPDEST DUP4 DUP2 LT ISZERO PUSH2 0x69B JUMPI DUP1 DUP3 ADD MLOAD DUP2 DUP5 ADD MSTORE PUSH1 0x20 DUP2 ADD SWAP1 POP PUSH2 0x680 JUMP JUMPDEST DUP4 DUP2 GT ISZERO PUSH2 0x6AA JUMPI PUSH1 0x0 DUP5 DUP5 ADD MSTORE JUMPDEST POP POP POP POP JUMP JUMPDEST PUSH1 0x0 PUSH2 0x6BB DUP3 PUSH2 0x661 JUMP JUMPDEST PUSH2 0x6C5 DUP2 DUP6 PUSH2 0x66C JUMP JUMPDEST SWAP4 POP PUSH2 0x6D5 DUP2 DUP6 PUSH1 0x20 DUP7 ADD PUSH2 0x67D JUMP JUMPDEST PUSH2 0x6DE DUP2 PUSH2 0x4B0 JUMP JUMPDEST DUP5 ADD SWAP2 POP POP SWAP3 SWAP2 POP POP JUMP JUMPDEST PUSH1 0x0 DUP2 SWAP1 POP SWAP2 SWAP1 POP JUMP JUMPDEST PUSH2 0x6FC DUP2 PUSH2 0x6E9 JUMP JUMPDEST DUP3 MSTORE POP POP JUMP JUMPDEST PUSH1 0x0 PUSH20 0xFFFFFFFFFFFFFFFFFFFFFFFFFFFFFFFFFFFFFFFF DUP3 AND SWAP1 POP SWAP2 SWAP1 POP JUMP JUMPDEST PUSH1 0x0 PUSH2 0x72D DUP3 PUSH2 0x702 JUMP JUMPDEST SWAP1 POP SWAP2 SWAP1 POP JUMP JUMPDEST PUSH2 0x73D DUP2 PUSH2 0x722 JUMP JUMPDEST DUP3 MSTORE POP POP JUMP JUMPDEST PUSH1 0x0 PUSH1 0x80 DUP4 ADD PUSH1 0x0 DUP4 ADD MLOAD DUP5 DUP3 SUB PUSH1 0x0 DUP7 ADD MSTORE PUSH2 0x760 DUP3 DUP3 PUSH2 0x6B0 JUMP JUMPDEST SWAP2 POP POP PUSH1 0x20 DUP4 ADD MLOAD DUP5 DUP3 SUB PUSH1 0x20 DUP7 ADD MSTORE PUSH2 0x77A DUP3 DUP3 PUSH2 0x6B0 JUMP JUMPDEST SWAP2 POP POP PUSH1 0x40 DUP4 ADD MLOAD PUSH2 0x78F PUSH1 0x40 DUP7 ADD DUP3 PUSH2 0x6F3 JUMP JUMPDEST POP PUSH1 0x60 DUP4 ADD MLOAD PUSH2 0x7A2 PUSH1 0x60 DUP7 ADD DUP3 PUSH2 0x734 JUMP JUMPDEST POP DUP1 SWAP2 POP POP SWAP3 SWAP2 POP POP JUMP JUMPDEST PUSH1 0x0 PUSH2 0x7B9 DUP4 DUP4 PUSH2 0x743 JUMP JUMPDEST SWAP1 POP SWAP3 SWAP2 POP POP JUMP JUMPDEST PUSH1 0x0 PUSH1 0x20 DUP3 ADD SWAP1 POP SWAP2 SWAP1 POP JUMP JUMPDEST PUSH1 0x0 PUSH2 0x7D9 DUP3 PUSH2 0x635 JUMP JUMPDEST PUSH2 0x7E3 DUP2 DUP6 PUSH2 0x640 JUMP JUMPDEST SWAP4 POP DUP4 PUSH1 0x20 DUP3 MUL DUP6 ADD PUSH2 0x7F5 DUP6 PUSH2 0x651 JUMP JUMPDEST DUP1 PUSH1 0x0 JUMPDEST DUP6 DUP2 LT ISZERO PUSH2 0x831 JUMPI DUP5 DUP5 SUB DUP10 MSTORE DUP2 MLOAD PUSH2 0x812 DUP6 DUP3 PUSH2 0x7AD JUMP JUMPDEST SWAP5 POP PUSH2 0x81D DUP4 PUSH2 0x7C1 JUMP JUMPDEST SWAP3 POP PUSH1 0x20 DUP11 ADD SWAP10 POP POP PUSH1 0x1 DUP2 ADD SWAP1 POP PUSH2 0x7F9 JUMP JUMPDEST POP DUP3 SWAP8 POP DUP8 SWAP6 POP POP POP POP POP POP SWAP3 SWAP2 POP POP JUMP JUMPDEST PUSH1 0x0 PUSH1 0x20 DUP3 ADD SWAP1 POP DUP2 DUP2 SUB PUSH1 0x0 DUP4 ADD MSTORE PUSH2 0x85D DUP2 DUP5 PUSH2 0x7CE JUMP JUMPDEST SWAP1 POP SWAP3 SWAP2 POP POP JUMP JUMPDEST PUSH1 0x0 DUP1 PUSH1 0x0 PUSH1 0x60 DUP5 DUP7 SUB SLT ISZERO PUSH2 0x87E JUMPI PUSH2 0x87D PUSH2 0x49C JUMP JUMPDEST JUMPDEST PUSH1 0x0 DUP5 ADD CALLDATALOAD PUSH8 0xFFFFFFFFFFFFFFFF DUP2 GT ISZERO PUSH2 0x89C JUMPI PUSH2 0x89B PUSH2 0x4A1 JUMP JUMPDEST JUMPDEST PUSH2 0x8A8 DUP7 DUP3 DUP8 ADD PUSH2 0x5BE JUMP JUMPDEST SWAP4 POP POP PUSH1 0x20 DUP5 ADD CALLDATALOAD PUSH8 0xFFFFFFFFFFFFFFFF DUP2 GT ISZERO PUSH2 0x8C9 JUMPI PUSH2 0x8C8 PUSH2 0x4A1 JUMP JUMPDEST JUMPDEST PUSH2 0x8D5 DUP7 DUP3 DUP8 ADD PUSH2 0x5BE JUMP JUMPDEST SWAP3 POP POP PUSH1 0x40 DUP5 ADD CALLDATALOAD PUSH8 0xFFFFFFFFFFFFFFFF DUP2 GT ISZERO PUSH2 0x8F6 JUMPI PUSH2 0x8F5 PUSH2 0x4A1 JUMP JUMPDEST JUMPDEST PUSH2 0x902 DUP7 DUP3 DUP8 ADD PUSH2 0x5BE JUMP JUMPDEST SWAP2 POP POP SWAP3 POP SWAP3 POP SWAP3 JUMP JUMPDEST PUSH1 0x0 DUP2 SWAP1 POP SWAP3 SWAP2 POP POP JUMP JUMPDEST PUSH1 0x0 PUSH2 0x922 DUP3 PUSH2 0x661 JUMP JUMPDEST PUSH2 0x92C DUP2 DUP6 PUSH2 0x90C JUMP JUMPDEST SWAP4 POP PUSH2 0x93C DUP2 DUP6 PUSH1 0x20 DUP7 ADD PUSH2 0x67D JUMP JUMPDEST DUP1 DUP5 ADD SWAP2 POP POP SWAP3 SWAP2 POP POP JUMP JUMPDEST PUSH1 0x0 PUSH2 0x954 DUP3 DUP5 PUSH2 0x917 JUMP JUMPDEST SWAP2 POP DUP2 SWAP1 POP SWAP3 SWAP2 POP POP JUMP JUMPDEST PUSH32 0x4E487B7100000000000000000000000000000000000000000000000000000000 PUSH1 0x0 MSTORE PUSH1 0x22 PUSH1 0x4 MSTORE PUSH1 0x24 PUSH1 0x0 REVERT JUMPDEST PUSH1 0x0 PUSH1 0x2 DUP3 DIV SWAP1 POP PUSH1 0x1 DUP3 AND DUP1 PUSH2 0x9A6 JUMPI PUSH1 0x7F DUP3 AND SWAP2 POP JUMPDEST PUSH1 0x20 DUP3 LT DUP2 SUB PUSH2 0x9B9 JUMPI PUSH2 0x9B8 PUSH2 0x95F JUMP JUMPDEST JUMPDEST POP SWAP2 SWAP1 POP JUMP JUMPDEST PUSH1 0x0 DUP3 DUP3 MSTORE PUSH1 0x20 DUP3 ADD SWAP1 POP SWAP3 SWAP2 POP POP JUMP JUMPDEST PUSH1 0x0 PUSH2 0x9DB DUP3 PUSH2 0x661 JUMP JUMPDEST PUSH2 0x9E5 DUP2 DUP6 PUSH2 0x9BF JUMP JUMPDEST SWAP4 POP PUSH2 0x9F5 DUP2 DUP6 PUSH1 0x20 DUP7 ADD PUSH2 0x67D JUMP JUMPDEST PUSH2 0x9FE DUP2 PUSH2 0x4B0 JUMP JUMPDEST DUP5 ADD SWAP2 POP POP SWAP3 SWAP2 POP POP JUMP JUMPDEST PUSH2 0xA12 DUP2 PUSH2 0x6E9 JUMP JUMPDEST DUP3 MSTORE POP POP JUMP JUMPDEST PUSH1 0x0 PUSH1 0x60 DUP3 ADD SWAP1 POP DUP2 DUP2 SUB PUSH1 0x0 DUP4 ADD MSTORE PUSH2 0xA32 DUP2 DUP7 PUSH2 0x9D0 JUMP JUMPDEST SWAP1 POP DUP2 DUP2 SUB PUSH1 0x20 DUP4 ADD MSTORE PUSH2 0xA46 DUP2 DUP6 PUSH2 0x9D0 JUMP JUMPDEST SWAP1 POP PUSH2 0xA55 PUSH1 0x40 DUP4 ADD DUP5 PUSH2 0xA09 JUMP JUMPDEST SWAP5 SWAP4 POP POP POP POP JUMP INVALID LOG2 PUSH5 0x6970667358 0x22 SLT KECCAK256 SWAP4 0x4C 0xC2 0xCA JUMP 0x2A PUSH30 0xB7FB0ADE10DB090720F026FA9A87E7936EA8BDDB4880AABB8464736F6C63 NUMBER STOP ADDMOD 0xE STOP CALLER "
				},
				"gasEstimates": {
					"creation": {
						"codeDepositCost": "541400",
						"executionCost": "575",
						"totalCost": "541975"
					},
					"external": {
						"getLogs(string)": "infinite",
						"recordLog(string,string,string)": "infinite"
					}
				},
				"methodIdentifiers": {
					"getLogs(string)": "1c0b75e8",
					"recordLog(string,string,string)": "5178e3dd"
				}
			},
			"storageLayout": {
				"storage": [
					{
						"astId": 16,
						"contract": "LogManager.sol:LogProvider",
						"label": "deviceLogs",
						"offset": 0,
						"slot": "0",
						"type": "t_mapping(t_string_memory_ptr,t_array(t_struct(LogEntry)10_storage)dyn_storage)"
					}
				],
				"types": {
					"t_address": {
						"encoding": "inplace",
						"label": "address",
						"numberOfBytes": "20"
					},
					"t_array(t_struct(LogEntry)10_storage)dyn_storage": {
						"base": "t_struct(LogEntry)10_storage",
						"encoding": "dynamic_array",
						"label": "struct LogProvider.LogEntry[]",
						"numberOfBytes": "32"
					},
					"t_mapping(t_string_memory_ptr,t_array(t_struct(LogEntry)10_storage)dyn_storage)": {
						"encoding": "mapping",
						"key": "t_string_memory_ptr",
						"label": "mapping(string => struct LogProvider.LogEntry[])",
						"numberOfBytes": "32",
						"value": "t_array(t_struct(LogEntry)10_storage)dyn_storage"
					},
					"t_string_memory_ptr": {
						"encoding": "bytes",
						"label": "string",
						"numberOfBytes": "32"
					},
					"t_string_storage": {
						"encoding": "bytes",
						"label": "string",
						"numberOfBytes": "32"
					},
					"t_struct(LogEntry)10_storage": {
						"encoding": "inplace",
						"label": "struct LogProvider.LogEntry",
						"members": [
							{
								"astId": 3,
								"contract": "LogManager.sol:LogProvider",
								"label": "ipfsHash",
								"offset": 0,
								"slot": "0",
								"type": "t_string_storage"
							},
							{
								"astId": 5,
								"contract": "LogManager.sol:LogProvider",
								"label": "fileName",
								"offset": 0,
								"slot": "1",
								"type": "t_string_storage"
							},
							{
								"astId": 7,
								"contract": "LogManager.sol:LogProvider",
								"label": "timestamp",
								"offset": 0,
								"slot": "2",
								"type": "t_uint256"
							},
							{
								"astId": 9,
								"contract": "LogManager.sol:LogProvider",
								"label": "recorder",
								"offset": 0,
								"slot": "3",
								"type": "t_address"
							}
						],
						"numberOfBytes": "128"
					},
					"t_uint256": {
						"encoding": "inplace",
						"label": "uint256",
						"numberOfBytes": "32"
					}
				}
			},
			"userdoc": {
				"kind": "user",
				"methods": {},
				"version": 1
			}
		}
	}
}